:020000040800F2
:1000000000000120C1160008E5140008EB140008E8
:10001000F1140008F7140008FD14000800000000A7
:1000200000000000000000000000000003150008B0
:100030000F150008000000001B1500082715000818
:1000400011170008111700081117000811170008F0
:1000500011170008111700081117000811170008E0
:1000600011170008111700081117000811170008D0
:1000700011170008111700081117000811170008C0
:1000800011170008111700081117000811170008B0
:1000900000000000111700081117000811170008D0
:1000A0001117000811170008111700081117000890
:1000B0001117000811170008111700081117000880
:1000C0001117000811170008111700081117000870
:1000D0001117000811170008111700081117000860
:1000E0001117000811170008111700081117000850
:1000F00011170008000000000000000011170008A0
:10010000111700081117000811170008111700082F
:10011000111700081117000811170008111700081F
:10012000111700081117000811170008111700080F
:08013000111700081117000867
:1001400010B5054C237833B9044B13B10448AFF311
:1001500000800123237010BDD401002000000000A6
:10016000C46B000808B5034B1BB103490348AFF348
:10017000008008BD00000000D8010020C46B00080A
:1001800001F0FF01102A2BDB10F0070F08D010F848
:10019000013B013A8B422DD010F0070F42B3F6D14C
:1001A000F0B441EA012141EA014122F007047FF065
:1001B00000070023F0E80256083C85EA010586EABC
:1001C000010685FA47F5A3FA87F586FA47F6A5FAF8
:1001D00087F68EB9EED1F0BC01F0FF0102F0070204
:1001E00032B110F8013B013A83EA010313B1F8D1AF
:1001F0000020704701387047002D06BF3546033890
:10020000073815F0010F07D1013015F4807F02BFC8
:10021000013015F4C03F0130F0BC0138704700BF19
:10022000034613F8012B002AFBD1181A0138704736
:1002300081F0004102E000BF83F0004330B54FEA97
:1002400041044FEA430594EA050F08BF90EA020F04
:100250001FBF54EA000C55EA020C7FEA645C7FEA97
:10026000655C00F0E2804FEA5454D4EB5555B8BFBA
:100270006D420CDD2C4480EA020281EA030382EA2B
:10028000000083EA010180EA020281EA0303362DBD
:1002900088BF30BD11F0004F4FEA01314FF4801C90
:1002A0004CEA113102D0404261EB410113F0004FA2
:1002B0004FEA03334CEA133302D0524263EB430359
:1002C00094EA050F00F0A780A4F10104D5F1200EF7
:1002D0000DDB02FA0EFC22FA05F2801841F1000152
:1002E00003FA0EF2801843FA05F359410EE0A5F126
:1002F00020050EF1200E012A03FA0EFC28BF4CF057
:10030000020C43FA05F3C01851EBE37101F000450C
:1003100007D54FF0000EDCF1000C7EEB00006EEB19
:100320000101B1F5801F1BD3B1F5001F0CD34908A3
:100330005FEA30004FEA3C0C04F101044FEA4452FA
:1003400012F5800F80F09A80BCF1004F08BF5FEA81
:10035000500C50F1000041EB045141EA050130BD61
:100360005FEA4C0C404141EB0101013C28BFB1F573
:10037000801FE9D291F0000F04BF01460020B1FABE
:1003800081F308BF2033A3F10B03B3F120020CDA91
:100390000C3208DD02F1140CC2F10C0201FA0CF06F
:1003A00021FA02F10CE002F11402D8BFC2F1200CD4
:1003B00001FA02F120FA0CFCDCBF41EA0C0190408A
:1003C000E41AA2BF01EB0451294330BD6FEA0404D3
:1003D0001F3C1CDA0C340EDC04F11404C4F12002BE
:1003E00020FA04F001FA02F340EA030021FA04F3D0
:1003F00045EA030130BDC4F10C04C4F1200220FA27
:1004000002F001FA04F340EA0300294630BD21FA64
:1004100004F0294630BD94F0000F83F4801306BF2A
:1004200081F480110134013D4EE77FEA645C18BF1E
:100430007FEA655C29D094EA050F08BF90EA020FB5
:1004400005D054EA000C04BF1946104630BD91EAAD
:10045000030F1EBF0021002030BD5FEA545C05D1B0
:100460004000494128BF41F0004130BD14F58004EF
:100470003CBF01F5801130BD01F0004545F0FE4163
:1004800041F470014FF0000030BD7FEA645C1ABF98
:10049000194610467FEA655C1CBF0B46024650EACF
:1004A000013406BF52EA033591EA030F41F40021FB
:1004B00030BD00BF90F0000F04BF0021704730B581
:1004C0004FF4806404F132044FF000054FF0000156
:1004D00050E700BF90F0000F04BF0021704730B517
:1004E0004FF4806404F1320410F0004548BF4042EC
:1004F0004FF000013EE700BF42004FEAE2014FEA41
:1005000031014FEA02701FBF12F07F4393F07F4F1B
:1005100081F06051704732F07F4208BF704793F01E
:100520007F4F04BF41F40021704730B54FF4607431
:1005300001F0004521F000411CE700BF50EA010234
:1005400008BF704730B54FF000050AE050EA0102DD
:1005500008BF704730B511F0004502D5404261EB4D
:1005600041014FF4806404F132045FEA915C3FF48E
:10057000D8AE4FF003025FEADC0C18BF03325FEA2B
:10058000DC0C18BF033202EBDC02C2F1200300FADC
:1005900003FC20FA02F001FA03FE40EA0E0021FA01
:1005A00002F11444BDE600BF70B54FF0FF0C4CF4EF
:1005B000E06C1CEA11541DBF1CEA135594EA0C0FA1
:1005C00095EA0C0F00F0DEF82C4481EA030621EADC
:1005D0004C5123EA4C5350EA013518BF52EA033517
:1005E00041F4801143F4801338D0A0FB02CE4FF0C9
:1005F0000005E1FB02E506F00042E0FB03E54FF0F9
:100600000006E1FB03569CF0000F18BF4EF0010EF0
:10061000A4F1FF04B6F5007F64F5407404D25FEAEC
:100620004E0E6D4146EB060642EAC62141EA55519F
:100630004FEAC52040EA5E504FEACE2EB4F1FD0CE1
:1006400088BFBCF5E06F1ED8BEF1004F08BF5FEA5F
:10065000500E50F1000041EB045170BD06F0004611
:1006600046EA010140EA020081EA0301B4EB5C04BE
:10067000C2BFD4EB0C0541EA045170BD41F48011B6
:100680004FF0000E013C00F3AB8014F1360FDEBFDB
:10069000002001F0004170BDC4F10004203C35DAB7
:1006A0000C341BDC04F11404C4F1200500FA05F33A
:1006B00020FA04F001FA05F240EA020001F00042DB
:1006C00021F0004110EBD37021FA04F642EB060151
:1006D0005EEA430E08BF20EAD37070BDC4F10C047B
:1006E000C4F1200500FA04F320FA05F001FA04F23F
:1006F00040EA020001F0004110EBD37041F100012B
:100700005EEA430E08BF20EAD37070BDC4F1200535
:1007100000FA05F24EEA020E20FA04F301FA05F29D
:1007200043EA020321FA04F001F0004121FA04F245
:1007300020EA020000EBD3705EEA430E08BF20EA15
:10074000D37070BD94F0000F0FD101F0004640004F
:1007500041EB010111F4801F08BF013CF7D041EAD1
:10076000060195F0000F18BF704703F000465200D5
:1007700043EB030313F4801F08BF013DF7D043EAA6
:100780000603704794EA0C0F0CEA135518BF95EA5C
:100790000C0F0CD050EA410618BF52EA4306D1D1E3
:1007A00081EA030101F000414FF0000070BD50EA02
:1007B000410606BF1046194652EA430619D094EA8C
:1007C0000C0F02D150EA013613D195EA0C0F05D176
:1007D00052EA03361CBF104619460AD181EA0301CA
:1007E00001F0004141F0FE4141F470014FF0000082
:1007F00070BD41F0FE4141F4780170BD70B54FF01D
:10080000FF0C4CF4E06C1CEA11541DBF1CEA13559C
:1008100094EA0C0F95EA0C0F00F0A7F8A4EB05047E
:1008200081EA030E52EA03354FEA013100F0888075
:100830004FEA03334FF0805545EA131343EA12633E
:100840004FEA022245EA111545EA10654FEA0026F3
:100850000EF000419D4208BF964244F1FD0404F5AC
:10086000407402D25B084FEA3202B61A65EB030508
:100870005B084FEA32024FF480104FF4002CB6EBC5
:10088000020E75EB030E22BFB61A754640EA0C0045
:100890005B084FEA3202B6EB020E75EB030E22BF85
:1008A000B61A754640EA5C005B084FEA3202B6EBC6
:1008B000020E75EB030E22BFB61A754640EA9C0085
:1008C0005B084FEA3202B6EB020E75EB030E22BF55
:1008D000B61A754640EADC0055EA060E18D04FEA13
:1008E000051545EA16754FEA06164FEAC30343EAB3
:1008F00052734FEAC2025FEA1C1CC0D111F4801F80
:100900000BD141EA00014FF000004FF0004CB6E778
:1009100011F4801F04BF01430020B4F1FD0C88BF17
:10092000BCF5E06F3FF6AFAEB5EB030C04BFB6EB22
:10093000020C5FEA500C50F1000041EB045170BD15
:100940000EF0004E4EEA113114EB5C04C2BFD4EB42
:100950000C0541EA045170BD41F480114FF0000EC6
:10096000013C90E645EA060E8DE60CEA135594EA42
:100970000C0F08BF95EA0C0F3FF43BAF94EA0C0F45
:100980000AD150EA01347FF434AF95EA0C0F7FF4BA
:1009900025AF104619462CE795EA0C0F06D152EA0E
:1009A00003353FF4FDAE1046194622E750EA4106F2
:1009B00018BF52EA43067FF4C5AE50EA41047FF403
:1009C0000DAF52EA43057FF4EBAE12E74FF0FF3C68
:1009D00006E000BF4FF0010C02E000BF4FF0010C39
:1009E0004DF804CD4FEA410C7FEA6C5C4FEA430CB2
:1009F00018BF7FEA6C5C1BD001B050EA410C0CBF01
:100A000052EA430C91EA030F02BF90EA020F002062
:100A1000704710F1000F91EA030F58BF994208BFC9
:100A200090422CBFD8176FEAE37040F00100704786
:100A30004FEA410C7FEA6C5C02D150EA013C07D1DD
:100A40004FEA430C7FEA6C5CD6D152EA033CD3D028
:100A50005DF8040B704700BF8446104662468C4622
:100A60001946634600E000BF01B5FFF7B7FF002855
:100A700048BF10F1000F01BD4DF808EDFFF7F4FF7E
:100A80000CBF012000205DF808FB00BF4DF808ED09
:100A9000FFF7EAFF34BF012000205DF808FB00BF2C
:100AA0004DF808EDFFF7E0FF94BF012000205DF84E
:100AB00008FB00BF4DF808EDFFF7CEFF94BF012003
:100AC00000205DF808FB00BF4DF808EDFFF7C4FFFC
:100AD00034BF012000205DF808FB00BF4FEA410C45
:100AE0007FEA6C5C02D150EA013C0AD14FEA430C28
:100AF0007FEA6C5C02D152EA033C02D14FF0000065
:100B000070474FF0010070474FEA410212F50012A2
:100B100015D211D56FF47873B3EB625212D94FEA44
:100B2000C12343F0004343EA505311F0004F23FA2E
:100B300002F018BF404270474FF00000704750EA83
:100B4000013005D111F0004008BF6FF00040704740
:100B50004FF00000704700BF4FEA4102B2F1E0439E
:100B600024BFB3F5001CDCF1FE5C0DD901F0004C94
:100B70004FEAC0024CEA5070B2F1004F40EB8300E4
:100B800008BF20F00100704711F0804F21D113F110
:100B90003872BCBF01F00040704741F480114FEA49
:100BA0005252C2F11802C2F1200C10FA0CF320FAD2
:100BB00002F018BF40F001004FEAC1234FEAD323EF
:100BC00003FA0CFC40EA0C0023FA02F34FEA430359
:100BD000CCE77FEA625307D150EA01331EBF4FF0E2
:100BE000FE4040F44000704701F0004040F0FE40FD
:100BF00040F40000704700BF53B94AB9002908BF4C
:100C000000281CBF4FF0FF314FF0FF3000F070B9EB
:100C1000ADF1080C6DE904CE00F006F8DDF804E053
:100C2000DDE9022304B070472DE9F047089E0D4628
:100C300004460F46002B4AD18A42944665D9B2FA3F
:100C400082F343B102FA03FCC3F120029F4020FA71
:100C500002F217439C404FEA1C4E1FFA8CF5B7FB7B
:100C6000FEF1220C0EFB117742EA074201FB05F070
:100C700090420AD91CEB020201F1FF3780F01B8180
:100C8000904240F2188102396244121AA4B2B2FBB7
:100C9000FEF00EFB102244EA024400FB05F5A542DB
:100CA0000AD91CEB040400F1FF3280F00681A54252
:100CB00040F203816444023840EA0140641B002191
:100CC0001EB1DC400023C6E90043BDE8F0878B423B
:100CD00008D9002E00F0EC800021C6E90005084686
:100CE000BDE8F087B3FA83F1002949D1AB4202D3C2
:100CF000824200F2F780841A65EB03020120174656
:100D0000002EE2D0C6E90047DFE702B9FFDEB2FA03
:100D100082F3002B40F08F808A1A4FEA1C471FFA9B
:100D20008CFE0121B2FBF7F507FB1520220C42EAED
:100D300000420EFB05F0904208D91CEB020205F1BF
:100D4000FF3802D2904200F2CA804546121AA4B27D
:100D5000B2FBF7F007FB102244EA02440EFB00FE50
:100D6000A64508D91CEB040400F1FF3202D2A645C7
:100D700000F2BA801046A4EB0E0440EA05409FE75B
:100D8000C1F120078B4022FA07FC4CEA030C05FA5C
:100D900001F420FA07F3FD40234300FA01F94FEA7A
:100DA0001C401FFA8CFEB5FBF0F81C0C00FB18551C
:100DB00044EA054408FB0EF5A54202FA01F20BD9FC
:100DC0001CEB040408F1FF3A80F08780A54240F252
:100DD0008480A8F102086444641B9DB2B4FBF0F364
:100DE00000FB134445EA044403FB0EFEA64508D964
:100DF0001CEB040403F1FF306BD2A64569D9023B1A
:100E0000644443EA0840A0FB0283A4EB0E049C4226
:100E1000C6461D4655D352D056B1B9EB0E0364EB0E
:100E2000050404FA07F7CB40CC401F43C6E9007421
:100E30000021BDE8F087C3F1200102FA03FC20FA8B
:100E400001F225FA01F19D402A434FEA1C471FFA9F
:100E50008CFEB1FBF7F007FB1015110C41EA0541C0
:100E600000FB0EF58D4204FA03F408D91CEB0101D6
:100E700000F1FF382FD28D422DD902386144491B31
:100E800092B2B1FBF7F507FB151142EA014205FBEF
:100E90000EF1914208D91CEB020205F1FF3816D27F
:100EA000914214D9023D6244521A45EA004139E7A1
:100EB0003146304609E73946E7E61046FCE6C145CB
:100EC000AAD2B8EB020E63EB0C050138A4E7454645
:100ED000EAE7034695E74046D1E7D0467CE7023D86
:100EE000624433E708460BE76444023843E700BF37
:100EF000704700BF80B485B000AF78604FF0B0435A
:100F0000DA6C4FF0B0417B681343CB644FF0B043D1
:100F1000DA6C7B681340FB60FB6800BF1437BD468A
:100F200080BC704780B59CB000AF00F0F3FB00F0D0
:100F300071F800F01DF900F0CFF8002387F86F304A
:100F4000002387F86E30002387F86D304FF00003E0
:100F5000BB6600237B6007F108036022002118466E
:100F600003F05BFD00F088F9034687F86F3001203D
:100F700000F046FCCC2000F0AFF9442000F0ACF9C2
:100F80004FF4487000F03CFC00F076F9034687F817
:100F90006F30012000F034FCCC2000F09DF9BE2021
:100FA00000F09AF900F0DEF9034687F86E3000F0A1
:100FB000D9F9034687F86D3097F86D301A0297F823
:100FC0006E3013431846FFF785FA4FF000020E4BC0
:100FD000FFF7EAFA02460B4610461946FFF7BCFD3A
:100FE0000346BB66B86EFFF787FA02460B46381D0C
:100FF000064903F0AFFC391D4FF47A7364220448AC
:1010000002F0EBF9AEE700BF0000B03FE06B000874
:10101000F001002080B59AB000AF07F1200348220C
:101020000021184603F0F9FC07F1080300221A60BA
:101030005A609A60DA601A615A61264B1B6823F481
:10104000C063244A43F400731360224B1B6803F40B
:10105000C0637B607B6802233B624FF480733B6319
:1010600040237B630223FB6402233B6500237B65F3
:101070000623BB654FF40033FB654FF000537B66DE
:101080004FF000733B6607F12003184601F0F6F8B5
:101090000346002B01D000F0A3F94F23BB600323CC
:1010A000FB6000233B614FF480637B610023BB61E5
:1010B0000023FB6107F108030221184601F060FCE0
:1010C0000346002B01D000F08BF900BF6837BD4606
:1010D00080BD00BF0004005880B500AF224B234AFA
:1010E0001A60214B4FF4E1325A601F4B00229A6084
:1010F0001D4B0022DA601C4B00221A611A4B0C2295
:101100005A61194B00229A61174B0022DA61164B83
:1011100000221A62144B00225A62134B00229A6278
:10112000114802F00AF90346002B01D000F058F9EB
:1011300000210D4802F03BFE0346002B01D000F0D9
:101140004FF90021084802F070FE0346002B01D041
:1011500000F046F9044802F0F2FD0346002B01D0EE
:1011600000F03EF900BF80BDF001002000380140D2
:1011700080B586B000AF3B1D00221A605A609A60AD
:10118000DA601A610420FFF7B5FE0220FFF7B2FE15
:1011900000221021094800F0B0FD10237B600123DC
:1011A000BB600023FB6000233B613B1D19460348E5
:1011B00000F02CFC00BF1837BD4680BD000400487D
:1011C00080B588B000AF78600B467B8007F10C03D8
:1011D00000221A605A609A60DA601A617B88FB60AC
:1011E00011233B6100237B610023BB6107F10C03EA
:1011F0001946786800F00AFC00BF2037BD4680BD64
:1012000080B588B000AF78600B467B8007F10C0397
:1012100000221A605A609A60DA601A617B88FB606B
:1012200000233B6100237B6107F10C0319467868BA
:1012300000F0ECFB00BF2037BD4680BD80B485B018
:1012400000AF78600023FB600BE00023BB6002E08E
:10125000BB680133BB60BB68042BF9DDFB6801335D
:10126000FB60FB687A689A42EFD800BF00BF143772
:10127000BD4680BC7047000080B582B000AF00233F
:10128000FB7110211348FFF79BFF0022102111482A
:1012900000F033FD4FF4F070FFF7D0FF10210D4840
:1012A000FFF7AEFF5020FFF7C9FF1021094800F0FB
:1012B0000DFD0346002B02D10123FB7101E0FF234A
:1012C000FB714FF4C870FFF7B9FFFB791846083778
:1012D000BD4680BD0004004880B584B000AF034621
:1012E000FB7110211E48FFF76BFF0023FB602EE00F
:1012F000FA79FB6842FA03F303F00103002B13D0E1
:1013000010211748FFF75CFF00221021144800F05D
:10131000F4FC0120FFF792FF10211148FFF770FF46
:101320003220FFF78BFF0FE010210D48FFF748FF39
:10133000002210210A4800F0E0FC3220FFF77EFF77
:1013400010210748FFF75CFFFB680133FB60FB6877
:10135000072BCDDD00BF00BF1037BD4680BD00BFED
:101360000004004880B582B000AF0023FB7110215B
:101370001A48FFF745FF00233B6026E0102117487D
:10138000FFF71EFF00221021144800F0B6FC0220D7
:10139000FFF754FF10211148FFF732FF10210F48CB
:1013A00000F094FC0346002B09D001223B6802FAAE
:1013B00003F35AB297F9073013435BB2FB713C2039
:1013C000FFF73CFF3B6801333B603B68072BD5DDF3
:1013D000FB7918460837BD4680BD00BF00040048B1
:1013E00080B400AF72B600BFFEE780B485B000AF36
:1013F00078604FF0B043DA6C4FF0B0417B68134334
:10140000CB644FF0B043DA6C7B681340FB60FB6841
:1014100000BF1437BD4680BC704780B485B000AFB4
:1014200078604FF0B0431A6E4FF0B0417B681343C1
:101430000B664FF0B0431A6E7B681340FB60FB688D
:1014400000BF1437BD4680BC704780B400AF00BFFA
:10145000BD4680BC7047000080B596B000AF786094
:1014600007F1440300221A605A609A60DA601A6138
:1014700007F10C0338220021184603F0CEFA7B68EE
:101480001B68164A934225D10123FB604FF4403379
:101490003B6107F10C03184601F014FE0346002BD4
:1014A00001D0FFF79DFF4FF48040FFF7B6FF022009
:1014B000FFF79BFFC0237B640223BB640023FB6414
:1014C00000233B6507237B6507F144031946044865
:1014D00000F09CFA00BF5837BD4680BD003801407F
:1014E0000004004880B400AFFEE780B400AFFEE720
:1014F00080B400AFFEE780B400AFFEE780B400AF79
:10150000FEE780B400AF00BFBD4680BC704780B42A
:1015100000AF00BFBD4680BC704780B400AF00BFC5
:10152000BD4680BC704780B500AF00F04DF900BFEC
:1015300080BD80B400AF01231846BD4680BC704713
:1015400080B582B000AF7860396003F0B9FA034625
:1015500016221A604FF0FF3318460837BD4680BD8B
:1015600080B582B000AF78604FF0FF317868FFF748
:10157000E7FFFEE780B586B000AFF860B9607A603B
:1015800000237B610AE0AFF300800146BB685A1C70
:10159000BA60CAB21A707B6901337B617A697B6871
:1015A0009A42F0DB7B6818461837BD4680BD80B58F
:1015B00086B000AFF860B9607A6000237B6109E013
:1015C000BB685A1CBA601B781846AFF300807B6971
:1015D00001337B617A697B689A42F1DB7B6818464C
:1015E0001837BD4680BD80B483B000AF78604FF03F
:1015F000FF3318460C37BD4680BC704780B483B0BB
:1016000000AF786039603B684FF400525A600023A5
:1016100018460C37BD4680BC704780B483B000AF1D
:101620007860012318460C37BD4680BC704780B4F3
:1016300085B000AFF860B9607A60002318461437AF
:10164000BD4680BC7047000080B586B000AF7860B2
:10165000144A154BD31A7B617B693B61134B1B68A2
:10166000002B02D1114B124A1A60104B1A687B688A
:1016700013443A699A4207D203F022FA03460C2235
:101680001A604FF0FF3309E0084B1B68FB60074B03
:101690001A687B681344054A1360FB6818461837BC
:1016A000BD4680BD0000012000040000840200202F
:1016B000D803002080B400AF00BFBD4680BC704797
:1016C0000D488546FFF7F6FF0C480D490D4A0023EB
:1016D00002E0D458C4500433C4188C42F9D30A4AE7
:1016E0000A4C002301E013600432A242FBD303F052
:1016F000EDF9FFF717FCFEE70000012000000020D5
:10170000D401002064700008D4010020D803002018
:10171000FEE7000080B582B000AF0023FB7103201C
:1017200000F042F901F0F0FA0346094A13600F2075
:1017300000F010F80346002B02D00123FB7101E0FA
:10174000FFF783FEFB7918460837BD4680BD00BF12
:101750000000002080B584B000AF78600023FB73E8
:10176000174B1B78002B24D001F0CEFA0246144B05
:101770001B7819464FF47A73B3FBF1F3B2FBF3F322
:10178000184600F036F90346002B0FD17B680F2B6B
:1017900009D8002279684FF0FF3000F010F9094AAB
:1017A0007B68136007E00123FB7304E00123FB73F4
:1017B00001E00123FB73FB7B18461037BD4680BD5B
:1017C000080000200400002080B400AF054B1B7807
:1017D0001A46054B1B681344034A136000BFBD46FD
:1017E00080BC7047080000208802002080B400AF51
:1017F000024B1B681846BD4680BC7047880200201B
:1018000080B584B000AF7860FFF7F0FFB8607B6808
:10181000FB60FB68B3F1FF3F05D00A4B1B781A460B
:10182000FB681344FB6000BFFFF7E0FF0246BB68A4
:10183000D31AFA689A42F7D800BF00BF1037BD46E6
:1018400080BD00BF0800002080B485B000AF786084
:101850007B6803F00703FB600C4BDB68BB60BA6876
:101860004FF6FF031340BB60FB681A02BB681343CB
:1018700043F0BF6343F40033BB60044ABB68D360EA
:1018800000BF1437BD4680BC704700BF00ED00E0CC
:1018900080B400AF044BDB681B0A03F00703184653
:1018A000BD4680BC704700BF00ED00E080B483B04F
:1018B00000AF03463960FB7197F90730002B0ADB54
:1018C0003B68DAB20C4997F907301201D2B20B44E7
:1018D00083F800230AE03B68DAB20849FB7903F099
:1018E0000F03043B1201D2B20B441A7600BF0C372F
:1018F000BD4680BC704700BF00E100E000ED00E0A5
:1019000080B489B000AFF860B9607A60FB6803F01A
:101910000703FB61FB69C3F10703042B28BF042302
:10192000BB61FB690433062B02D9FB69033B00E072
:1019300000237B614FF0FF32BB6902FA03F3DA4305
:10194000BB681A407B699A404FF0FF317B6901FA0E
:1019500003F3D9437B680B40134318462437BD4635
:1019600080BC704780B582B000AF78607B68013B77
:10197000B3F1807F01D301230FE00A4A7B68013B6A
:1019800053600F214FF0FF30FFF790FF054B00220F
:101990009A60044B07221A60002318460837BD4698
:1019A00080BD00BF10E000E080B582B000AF78607D
:1019B0007868FFF749FF00BF0837BD4680BD80B596
:1019C00086B000AF0346B9607A60FB73FFF760FF33
:1019D00078617A68B9687869FFF792FF024697F9EB
:1019E0000F3011461846FFF761FF00BF1837BD469C
:1019F00080BD80B582B000AF78607868FFF7B2FF35
:101A0000034618460837BD4680BD000080B487B045
:101A100000AF7860396000237B6140E13B681A6861
:101A200001217B6901FA03F31340FB60FB68002B83
:101A300000F032813B685B6803F00303012B05D0A3
:101A40003B685B6803F00303022B30D17B689B6823
:101A50003B617B695B00032202FA03F3DB433A69D3
:101A600013403B613B68DA687B695B0002FA03F371
:101A70003A6913433B617B683A699A607B685B68AB
:101A80003B6101227B6902FA03F3DB433A691340AD
:101A90003B613B685B681B0903F001027B6902FA4A
:101AA00003F33A6913433B617B683A695A603B68C8
:101AB0005B6803F00303032B17D07B68DB683B6193
:101AC0007B695B00032202FA03F3DB433A691340AC
:101AD0003B613B689A687B695B0002FA03F33A69F1
:101AE00013433B617B683A69DA603B685B6803F0EB
:101AF0000303022B23D17B69DA087B68083253F891
:101B000022303B617B6903F007039B000F2202FA3E
:101B100003F3DB433A6913403B613B681A697B6915
:101B200003F007039B0002FA03F33A6913433B6196
:101B30007B69DA087B680832396943F822107B68D0
:101B40001B683B617B695B00032202FA03F3DB4302
:101B50003A6913403B613B685B6803F003027B69B1
:101B60005B0002FA03F33A6913433B617B683A690D
:101B70001A603B685B6803F44033002B00F08C80F4
:101B80004E4A7B699B08023352F823303B617B69E4
:101B900003F003039B00072202FA03F3DB433A69D5
:101BA00013403B617B68B3F1904F0DD07B68444A92
:101BB000934207D07B68434A934201D1022304E059
:101BC000072302E0012300E000237A6902F0030208
:101BD000920093403A6913433B6138497B699B0803
:101BE00002333A6941F82320374B1B683B61FB689D
:101BF000DB433A6913403B613B685B6803F4801345
:101C0000002B03D03A69FB6813433B612E4A3B69C2
:101C100013602D4B5B683B61FB68DB433A69134003
:101C20003B613B685B6803F40013002B03D03A6907
:101C3000FB6813433B61244A3B695360224BD3F852
:101C400080303B61FB68DB433A6913403B613B6892
:101C50005B6803F48033002B03D03A69FB681343BD
:101C60003B61194A3B69C2F88030174BD3F8843086
:101C70003B61FB68DB433A6913403B613B685B684F
:101C800003F40033002B03D03A69FB6813433B6134
:101C90000D4A3B69C2F884307B6901337B613B6844
:101CA0001A687B6922FA03F3002B7FF4B7AE00BFFA
:101CB00000BF1C37BD4680BC704700BF000001401C
:101CC00000040048000800480008005880B485B0AF
:101CD00000AF78600B467B807B681A697B88134075
:101CE000002B02D00123FB7301E00023FB73FB7B7D
:101CF00018461437BD4680BC704780B483B000AF2F
:101D000078600B467B8013467B707B78002B03D07A
:101D10007A887B689A6102E07A887B689A6200BF61
:101D20000C37BD4680BC704780B400AF044B1B68C5
:101D3000034A43F48073136000BFBD4680BC704704
:101D40000004005880B400AF034B1B6803F4C06369
:101D50001846BD4680BC70470004005880B400AFF0
:101D6000064B1B6803F48073B3F5807F01D1012318
:101D700000E000231846BD4680BC704700040058B0
:101D800080B400AF4FF0B0431B684FF0B04243F453
:101D90000013136000BFBD4680BC704780B400AF25
:101DA0004FF0B0431B684FF0B04223F400131360B0
:101DB00000BFBD4680BC704780B400AF4FF0B04359
:101DC0001B6803F48013B3F5801F01D1012300E0E9
:101DD00000231846BD4680BC704780B400AF4FF06A
:101DE000B0431B684FF0B04243F48033136000BF30
:101DF000BD4680BC704780B400AF4FF0B0431B6855
:101E00004FF0B04223F48033136000BFBD4680BC66
:101E1000704780B400AF4FF0B0431B6803F4003349
:101E2000B3F5003F01D1012300E000231846BD4671
:101E300080BC704780B400AF4FF0B0431B684FF0D8
:101E4000B04243F48073136000BFBD4680BC70474E
:101E500080B400AF4FF0B0431B684FF0B04223F4A2
:101E60008073136000BFBD4680BC704780B400AF74
:101E70004FF0B0431B6803F48063B3F5806F01D16A
:101E8000012300E000231846BD4680BC704780B4A3
:101E900083B000AF78604FF0B0435B6823F0FE4240
:101EA0007B681B064FF0B04113434B6000BF0C37FB
:101EB000BD4680BC704780B400AF4FF0B043D3F84C
:101EC000903003F00203022B01D1012300E0002334
:101ED0001846BD4680BC704780B400AF4FF0B04399
:101EE000D3F894304FF0B04243F00103C2F894307D
:101EF00000BFBD4680BC704780B400AF4FF0B04318
:101F0000D3F894304FF0B04223F00103C2F894307C
:101F100000BFBD4680BC704780B400AF4FF0B043F7
:101F2000D3F8943003F00203022B01D1012300E027
:101F300000231846BD4680BC704780B400AF4FF008
:101F4000B0431B684FF0B04243F00103136000BF81
:101F5000BD4680BC704780B400AF4FF0B0431B68F3
:101F60004FF0B04223F00103136000BFBD4680BCB8
:101F7000704780B400AF4FF0B0431B6803F002031A
:101F8000022B01D1012300E000231846BD4680BC8E
:101F9000704780B400AF4FF0B0431B6803F00803F4
:101FA000082B01D1012300E000231846BD4680BC68
:101FB000704780B400AF4FF0B0431B6803F0F003EC
:101FC0001846BD4680BC704780B400AF4FF0B043A8
:101FD000D3F8943003F470631846BD4680BC704754
:101FE00080B483B000AF78604FF0B0435B6823F4F7
:101FF0007F427B681B024FF0B04113434B6000BF30
:102000000C37BD4680BC704780B483B000AF7860A9
:102010004FF0B0439B6823F003024FF0B0417B6860
:1020200013438B6000BF0C37BD4680BC704780B443
:1020300000AF4FF0B0439B6803F00C031846BD4659
:1020400080BC704780B483B000AF78604FF0B0437D
:102050009B6823F0F0024FF0B0417B6813438B6024
:1020600000BF0C37BD4680BC704780B483B000AF62
:1020700078604FF0B043D3F8083123F00F027B684B
:102080001B094FF0B0411343C1F8083100BF0C37B2
:10209000BD4680BC704780B483B000AF78604FF01D
:1020A000B0439B6823F4E0624FF0B0417B68134378
:1020B0008B6000BF0C37BD4680BC704780B483B0D6
:1020C00000AF78604FF0B0439B6823F460524FF04C
:1020D000B0417B6813438B6000BF0C37BD4680BCAA
:1020E000704780B400AF4FF0B0439B6803F0F0033B
:1020F0001846BD4680BC704780B400AF4FF0B04377
:10210000D3F808311B0103F0F0031846BD4680BC2C
:10211000704780B400AF4FF0B0439B6803F4E063B6
:102120001846BD4680BC704780B400AF4FF0B04346
:102130009B6803F460531846BD4680BC704780B46A
:1021400000AF4FF0B0431B684FF0B04243F08073D4
:10215000136000BFBD4680BC704780B400AF4FF035
:10216000B0431B684FF0B04223F08073136000BF90
:10217000BD4680BC704780B400AF4FF0B0431B68D1
:1021800003F00073B3F1007F01D1012300E00023CD
:102190001846BD4680BC704780B400AF4FF0B043D6
:1021A000DB681B0A03F07F031846BD4680BC7047FE
:1021B00080B400AF4FF0B043DB6803F060431846D3
:1021C000BD4680BC704780B400AF4FF0B043DB68C1
:1021D00003F070031846BD4680BC704780B400AF62
:1021E0004FF0B043DB6803F003031846BD4680BCE4
:1021F000704780B400AF4FF0B0439B6803F4803366
:10220000B3F5803F01D1012300E000231846BD460D
:1022100080BC704780B400AF4FF0B043D3F80831B2
:1022200003F48033B3F5803F01D1012300E00023A4
:102230001846BD4680BC704780B400AF4FF0B04335
:102240009B6803F40033B3F5003F01D1012300E0A4
:1022500000231846BD4680BC704780B400AF4FF0E5
:10226000B0439B6803F48023B3F5802F01D1012391
:1022700000E000231846BD4680BC704780B588B09A
:1022800000AF78607B68002B01D101236FE3FFF77B
:10229000CEFEF861FFF7A2FFB8617B681B6803F010
:1022A0002003002B00F0C480FB69002B05D0FB69E4
:1022B0000C2B76D1BB69012B73D17B681B6A002B79
:1022C00001D1012353E37B689A6A4FF0B0431B6846
:1022D00003F00803002B05D04FF0B0431B6803F058
:1022E000F00306E04FF0B043D3F894301B0903F03D
:1022F000F003934222D27B689B6A184600F03CFDB3
:102300000346002B01D0012331E34FF0B0431B689B
:102310004FF0B04243F0080313604FF0B0431B6826
:1023200023F0F0027B689B6A4FF0B04113430B60CF
:102330007B685B6A1846FFF753FE21E04FF0B0431D
:102340001B684FF0B04243F0080313604FF0B043F6
:102350001B6823F0F0027B689B6A4FF0B041134387
:102360000B607B685B6A1846FFF73AFE7B689B6AE6
:10237000184600F001FD0346002B01D00123F6E2D0
:1023800000F0C2FC0346A74A1360A74B1B6818461F
:10239000FFF7E0F90346FB74FB7C002B47D0FB7C86
:1023A000E5E27B681B6A002B2CD0FFF7C6FDFFF728
:1023B0001DFA786108E0FFF719FA02467B69D31A23
:1023C000022B01D90323D2E2FFF7D3FD0346002BF2
:1023D000F1D04FF0B0431B684FF0B04243F0080318
:1023E00013604FF0B0431B6823F0F0027B689B6AD8
:1023F0004FF0B04113430B607B685B6A1846FFF7F0
:10240000EFFD15E0FFF7A7FDFFF7F0F9786108E0B1
:10241000FFF7ECF902467B69D31A022B01D903239B
:10242000A5E2FFF7A6FD0346002BF1D100E000BFB7
:102430007B681B6803F00103002B58D0FB69082B55
:1024400005D0FB690C2B08D1BB69032B05D17B6838
:102450005B68002B4BD1012389E24FF0B0431B682E
:1024600023F480127B689B684FF0B04113430B60EC
:102470007B685B68B3F5803F02D1FFF7AEFC0DE0EF
:102480007B685B68B3F5041F04D1FFF779FCFFF7A5
:10249000A4FC03E0FFF7AFFCFFF780FC7B685B6800
:1024A000002B12D0FFF7A2F9786108E0FFF79EF940
:1024B00002467B69D31A642B01D9032357E2FFF745
:1024C000A8FC0346002BF1D011E0FFF78FF97861EB
:1024D00008E0FFF78BF902467B69D31A642B01D918
:1024E000032344E2FFF795FC0346002BF1D17B6800
:1024F0001B6803F00203002B46D0FB69042B05D0B8
:10250000FB690C2B0ED1BB69022B0BD17B681B69BD
:10251000002B01D101232AE27B685B691846FFF793
:10252000B6FC31E07B681B69002B19D0FFF782FCF9
:10253000FFF75CF9786108E0FFF758F902467B691C
:10254000D31A022B01D9032311E2FFF78FFC0346B4
:10255000002BF1D07B685B691846FFF798FC13E00D
:10256000FFF776FCFFF742F9786108E0FFF73EF9E4
:1025700002467B69D31A022B01D90323F7E1FFF747
:1025800075FC0346002BF1D17B681B6803F0080340
:10259000002B6ED07B689B69002B56D04FF0B04368
:1025A000D3F89430FB607B68DA69FB6803F01003B2
:1025B0009A4231D0FB6803F00203002B06D0FB687F
:1025C00003F00103002B01D10123D0E1FB6803F0EC
:1025D0000103002B13D0FFF78FFCFFF707F9786199
:1025E00008E0FFF703F902467B69D31A112B01D9E2
:1025F0000323BCE1FFF790FC0346002BF1D14FF021
:10260000B043D3F8943023F010027B68DB694FF0BD
:10261000B0411343C1F89430FFF75EFCFFF7E6F8D2
:1026200078610CE00000002004000020FFF7DEF8D5
:1026300002467B69D31A112B01D9032397E1FFF7D7
:102640006BFC0346002BF1D013E0FFF755FCFFF7BE
:10265000CDF8786108E0FFF7C9F802467B69D31A24
:10266000112B01D9032382E1FFF756FC0346002B0F
:10267000F1D17B681B6803F00403002B00F0D880C5
:10268000FFF76CFB0346002B13D1FFF74DFBFFF761
:10269000ADF8786108E0FFF7A9F802467B69D31A24
:1026A000022B01D9032362E1FFF758FB0346002BFD
:1026B000F1D07B68DB68002B7BD07B68DB68852BE7
:1026C00003D07B68DB68052B09D14FF0B043D3F80A
:1026D00090304FF0B04243F00403C2F89030FFF75F
:1026E00085F878614FF0B043D3F890304FF0B042A6
:1026F00043F00103C2F890300AE0FFF777F8024692
:102700007B69D31A41F28832934201D903232EE127
:10271000FFF7D1FB0346002BEFD07B68DB68812BF2
:1027200003D07B68DB68852B21D1FFF75FF87861E8
:102730004FF0B043D3F890304FF0B04243F08003F5
:10274000C2F890300AE0FFF751F802467B69D31ACD
:1027500041F28832934201D9032308E14FF0B0439C
:10276000D3F8903003F40063002BECD060E0FFF767
:102770003DF878614FF0B043D3F890304FF0B0425D
:1027800023F08003C2F890300AE0FFF72FF80246EA
:102790007B69D31A41F28832934201D90323E6E0E0
:1027A0004FF0B043D3F8903003F40063002BECD12A
:1027B0003EE0FFF71BF878614FF0B043D3F890305C
:1027C0004FF0B04223F08003C2F890300AE0FFF7E8
:1027D0000DF802467B69D31A41F28832934201D93F
:1027E0000323C4E04FF0B043D3F8903003F4006308
:1027F000002BECD1FEF7FAFF78614FF0B043D3F82D
:1028000090304FF0B04223F00103C2F890300AE05C
:10281000FEF7ECFF02467B69D31A41F288329342FD
:1028200001D90323A3E0FFF746FB0346002BEFD1BA
:102830007B68DB6A002B00F09980FB690C2B6CD065
:102840007B68DB6A022B4BD1FFF787FCFEF7CEFFDC
:10285000786108E0FEF7CAFF02467B69D31A0A2BAB
:1028600001D9032383E0FFF786FC0346002BF1D157
:102870004FF0B043DA68404B13407A68116B7A68C6
:10288000526B11437A68926B120211437A68D26BD1
:1028900011437A68126C11437A68526C0A434FF004
:1028A000B0411343CB60FFF74AFC4FF0B043DB6805
:1028B0004FF0B04243F08053D360FEF797FF78614A
:1028C00008E0FEF793FF02467B69D31A0A2B01D971
:1028D00003234CE0FFF74FFC0346002BF1D045E00B
:1028E000FFF73BFCFEF782FF786108E0FEF77EFF12
:1028F00002467B69D31A0A2B01D9032337E0FFF77D
:102900003AFC0346002BF1D14FF0B043DA684FF0A8
:10291000B0411A4B1340CB6028E07B68DB6A012B87
:1029200001D1012323E04FF0B043DB68BB61BB69F9
:1029300003F003027B681B6B9A4215D1BB6903F05D
:1029400070027B685B6B9A420ED1BB6903F4FE4256
:102950007B689B6B1B029A4206D1BB6903F0604205
:102960007B685B6C9A4201D0012300E0002318468B
:102970002037BD4680BD00BF8C80C111FCFFFEEE3C
:1029800080B584B000AF786039607B68002B01D1DE
:1029900001230FE1894B1B6803F007033A689A4251
:1029A0001BD9864B1B6823F0070284493B681343FD
:1029B0000B60FEF71BFFF86008E0FEF717FF02460A
:1029C000FB68D31A022B01D90323F3E07B4B1B686E
:1029D00003F007033A689A42EFD17B681B6803F063
:1029E0000203002B16D07B689B681846FFF72AFB72
:1029F000FEF7FCFEF86008E0FEF7F8FE0246FB6812
:102A0000D31A022B01D90323D4E0FFF7F2FB0346CC
:102A1000002BF1D07B681B6803F04003002B16D01D
:102A20007B685B691846FFF720FBFEF7DFFEF86066
:102A300008E0FEF7DBFE0246FB68D31A022B01D941
:102A40000323B7E0FFF7E6FB0346002BF1D07B68DA
:102A50001B6803F00403002B16D07B68DB68184664
:102A6000FFF719FBFEF7C2FEF86008E0FEF7BEFEB6
:102A70000246FB68D31A022B01D903239AE0FFF721
:102A8000DBFB0346002BF1D07B681B6803F00803D7
:102A9000002B17D07B681B69DB001846FFF70EFB85
:102AA000FEF7A4FEF86008E0FEF7A0FE0246FB6811
:102AB000D31A022B01D903237CE0FFF7CEFB034698
:102AC000002BF1D07B681B6803F00103002B43D07F
:102AD0007B685B68022B06D1FFF79BF90346002B4E
:102AE0001ED1012366E07B685B68032B06D1FFF7EC
:102AF00042FB0346002B13D101235BE07B685B683C
:102B0000002B06D1FFF735FA0346002B08D101232D
:102B100050E0FFF7ABF90346002B01D1012349E058
:102B20007B685B681846FFF76FFAFEF75FFEF86098
:102B30000AE0FEF75BFE0246FB68D31A41F28832D8
:102B4000934201D9032335E0FFF771FA02467B680F
:102B50005B689B009A42ECD1184B1B6803F007039B
:102B60003A689A421BD2154B1B6823F0070213499F
:102B70003B6813430B60FEF739FEF86008E0FEF790
:102B800035FE0246FB68D31A022B01D9032311E05C
:102B90000A4B1B6803F007033A689A42EFD100F032
:102BA000B3F80346064A1360064B1B681846FEF747
:102BB000D1FD034618461037BD4680BD0040005881
:102BC000000000200400002090B587B000AF002373
:102BD0007B6100233B61FFF72AFAB860FFF7FEFA3A
:102BE0007860BB68002B05D0BB680C2B39D17B68A3
:102BF000012B36D1FFF7CDF90346002B15D1FFF796
:102C0000C8F90346012B06D1FFF7D3F903461B0A87
:102C100003F00F0305E0FFF7D7F903461B0A03F0A3
:102C20000F03364A52F8233014E0FFF7B2F9034697
:102C3000012B06D1FFF7BDF903461B0903F00F0373
:102C400005E0FFF7C1F903461B0903F00F032B4A08
:102C500052F823303B61BB68002B15D13B697B6187
:102C600012E0BB68042B02D1254B7B610CE0BB68F2
:102C7000082B09D1FFF7A0F80346012B02D1204B06
:102C80007B6101E01F4B7B61FFF7D1F903460C2B01
:102C90002FD1FFF7A3FA78607B68022B03D07B6803
:102CA000032B03D00DE0164BFB600DE0FFF784F81B
:102CB0000346012B02D1124BFB6005E0114BFB6078
:102CC00002E03B69FB6000BFFFF766FA0246FB6863
:102CD00003FB02F4FFF777FA03461B090133B4FB49
:102CE000F3F4FFF765FA03465B0F0133B4FBF3F32C
:102CF0007B617B6918461C37BD4690BD7C6C000823
:102D00000024F4000048E80198B500AFFFF75CFF2D
:102D10000446FFF7E6F903461B0903F00F03034AD5
:102D200052F82330B4FBF3F3184698BD1C6C00082E
:102D300098B500AFFFF7E8FF0446FFF7EAF903464E
:102D40001B0A034A52F8233024FA03F3184698BDAD
:102D50005C6C000898B500AFFFF7D6FF0446FFF79C
:102D6000E3F90346DB0A034A52F8233024FA03F35B
:102D7000184698BD5C6C000890B585B000AF7860CF
:102D80007B681B0903F00F03104A52F82330FB60E5
:102D9000FFF7B2F903461B0903F00F030C4A52F880
:102DA0002330FA68B2FBF3F3BB60BB68094AA2FBAD
:102DB00003239C0CFEF7C6FF03461946204600F08D
:102DC0000BF8034618461437BD4690BD7C6C0008CE
:102DD0001C6C000883DE1B4380B58EB000AF7860AA
:102DE00039603A4A07F1200392E80300186004337F
:102DF0001980374A07F1180392E80300186004337A
:102E00001980344A07F10C0307CA83E8070000233E
:102E10007B633B68B3F5007F1BD100233B6314E069
:102E20003B6B5B0038333B4433F8183C1A467B68F5
:102E3000934207D83B6B9B0038333B4453F82C3C00
:102E40007B6321E03B6B01333B633B6B022BE7D998
:102E50001AE00023FB6214E0FB6A5B0038333B445A
:102E600033F8203C1A467B68934207D8FB6A9B00E4
:102E700038333B4453F82C3C7B6305E0FB6A013359
:102E8000FB62FB6A022BE7D9134B1B6823F0070296
:102E900011497B6B13430B60FEF7A8FCB86208E096
:102EA000FEF7A4FC0246BB6AD31A022B01D9032306
:102EB00007E0094B1B6803F007037A6B9A42EFD1D6
:102EC000002318463837BD4680BD00BF006C00089F
:102ED000086C0008106C00080040005880B400AF77
:102EE0004FF0B043D3F8903003F00203022B01D12E
:102EF000012300E000231846BD4680BC704780B423
:102F000083B000AF78604FF0B043D3F888207B687F
:102F10001B0CDB431A407B689BB24FF0B04113435C
:102F2000C1F8883000BF0C37BD4680BC704780B404
:102F300083B000AF78604FF0B043D3F8883023F40B
:102F400040724FF0B0417B681343C1F8883000BF36
:102F50000C37BD4680BC704780B483B000AF78604A
:102F60004FF0B043D3F8883023F440624FF0B041C3
:102F70007B681343C1F8883000BF0C37BD4680BC66
:102F8000704780B483B000AF78604FF0B043D3F89F
:102F900088207B681B0903F47F23DB431A407B688E
:102FA0001B0103F47F234FF0B0411343C1F8883075
:102FB00000BF0C37BD4680BC704780B483B000AF03
:102FC00078604FF0B043D3F888207B681B0C1B045B
:102FD000DB431A407B681B044FF0B0411343C1F838
:102FE000883000BF0C37BD4680BC704780B483B0CA
:102FF00000AF78604FF0B043D3F8883023F0404200
:103000004FF0B0417B681343C1F8883000BF0C37E4
:10301000BD4680BC704780B483B000AF78604FF08D
:10302000B043D3F8883023F040524FF0B0417B6872
:103030001343C1F8883000BF0C37BD4680BC7047D1
:1030400080B483B000AF78604FF0B043D3F89030D5
:1030500023F440724FF0B0417B681343C1F89030C5
:1030600000BF0C37BD4680BC704780B400AF4FF046
:10307000B043D3F8903003F440731846BD4680BC8B
:10308000704780B400AF4FF0B043D3F890304FF0AA
:10309000B04243F48033C2F8903000BFBD4680BCDC
:1030A000704780B400AF4FF0B043D3F890304FF08A
:1030B000B04223F48033C2F8903000BFBD4680BCDC
:1030C0007047000080B586B000AF786000237B6158
:1030D0000023FB740023BB747B681B6803F48033FC
:1030E000002B58D0FEF720FEFEF780FBF86009E0C9
:1030F000FEF77CFB0246FB68D31A022B02D903239E
:10310000FB7406E07B4B1B6803F48073B3F5807F90
:10311000EED1FB7C002B3CD1FFF7A7FF02467B687A
:103120005B6B9A420FD04FF0B043D3F8903023F44A
:1031300040737B61FFF7A5FFFFF7B3FF4FF0B0428D
:103140007B69C2F890307B6903F00203002B14D036
:10315000FEF74CFBF8600BE0FEF748FB0246FB680D
:10316000D31A41F28832934202D90323FB7404E05C
:10317000FFF7B4FE0346012BEED1FB7C002B05D1FB
:103180007B685B6B1846FFF75BFF04E0FB7CBB745E
:1031900001E0FB7CBB747B681B6803F00103002B20
:1031A00004D07B685B681846FFF7A9FE7B681B6844
:1031B00003F00203002B04D07B689B681846FFF7DE
:1031C0009EFE7B681B6803F02003002B04D07B6805
:1031D0001B691846FFF7C0FE7B681B6803F4007389
:1031E000002B04D07B681B6A1846FFF7E6FE7B685D
:1031F0001B6803F48063002B04D07B685B6A18466D
:10320000FFF7DBFE7B681B6803F40063002B04D030
:103210007B689B6A1846FFF7D0FE7B681B6803F04B
:103220004003002B04D07B685B691846FFF7A9FEBA
:103230007B681B6803F08003002B04D07B689B69CC
:103240001846FFF79EFE7B681B6803F48073002B13
:1032500004D07B68DB691846FFF793FE7B681B6828
:1032600003F01003002B11D07B68DB681846FFF7D2
:103270005EFE7B68DB68B3F5807F07D14FF0B0431B
:10328000DB684FF0B04243F08073D3607B681B680B
:1032900003F40043002B10D07B681B6B1846FFF72C
:1032A000A5FE7B681B6B002B07D14FF0B043DB689A
:1032B0004FF0B04243F08073D3607B681B6803F427
:1032C0008043002B11D07B68DB6A1846FFF7A3FE12
:1032D0007B68DB6AB3F1005F07D14FF0B043DB6876
:1032E0004FF0B04243F48033D360BB7C18461837AC
:1032F000BD4680BD0004005880B483B000AF786044
:103300004FF0B043D3F888207B681A407B681B04D9
:10331000134318460C37BD4680BC704780B483B059
:1033200000AF78604FF0B043D3F888207B6813403B
:1033300018460C37BD4680BC704780B582B000AFE0
:1033400078607B68002B01D1012342E07B68D3F8D1
:103350008830002B06D17B68002283F884207868AF
:10336000FEF77AF87B682422C3F888207B681B6804
:103370001A687B681B6822F001021A60786800F006
:10338000B3F80346012B01D1012322E07B689B6A3D
:10339000002B02D0786800F01BFB7B681B685A6822
:1033A0007B681B6822F490425A607B681B689A68AD
:1033B0007B681B6822F02A029A607B681B681A6887
:1033C0007B681B6842F001021A60786800F0A1FB7C
:1033D000034618460837BD4680BD80B58AB002AFA7
:1033E000F860B9603B601346FB80FB68D3F8883017
:1033F000202B73D1BB68002B02D0FB88002B01D19E
:1034000001236CE0FB680022C3F89020FB682122B6
:10341000C3F88820FEF7EAF97861FB68FA88A3F818
:103420005420FB68FA88A3F85620FB689B68B3F524
:10343000805F08D1FB681B69002B04D10023FB616E
:10344000BB68BB6103E0BB68FB610023BB612CE090
:103450003B6800937B6900228021F86800F0A7FB9D
:103460000346002B01D0032339E0FB69002B0BD16D
:10347000BB691B881A46FB681B68C2F308029A6284
:10348000BB690233BB6107E0FB691A78FB681B6804
:103490009A62FB690133FB61FB68B3F856309BB25B
:1034A000013B9AB2FB68A3F85620FB68B3F856308C
:1034B0009BB2002BCCD13B6800937B69002240215A
:1034C000F86800F074FB0346002B01D0032306E0EC
:1034D000FB682022C3F88820002300E0022318465E
:1034E0002037BD4680BD00002DE9B04F8CB000AF45
:1034F0007861002387F82A307B699A687B691B69A9
:103500001A437B695B691A437B69DB691343FB627E
:103510007B691B681A68944B13407A691268F96AD0
:103520000B4313607B691B685B6823F440517B6924
:10353000DA687B691B680A435A607B699B69FB6296
:103540007B691B68894A934204D07B691B6AFA6ACB
:103550001343FB627B691B689B6823F06E4323F473
:1035600030637A691268F96A0B4393607B691B6860
:10357000DB6A23F00F017B695A6A7B691B680A4387
:10358000DA627B691B687A4A934227D10320FFF7EE
:10359000B3FE0346A3F54033032B1BD801A252F818
:1035A00023F000BFB5350008C5350008BD3500085B
:1035B000CD350008012387F82B3080E0022387F8FF
:1035C0002B307CE0042387F82B3078E0082387F841
:1035D0002B3074E0102387F82B3070E07B691B6878
:1035E000644A934238D10C20FFF786FE0346A3F5C8
:1035F00040230C2B2CD801A252F823F031360008BE
:10360000513600085136000851360008413600088E
:103610005136000851360008513600083936000886
:103620005136000851360008513600084936000866
:10363000002387F82B3042E0022387F82B303EE04E
:10364000042387F82B303AE0082387F82B3036E044
:10365000102387F82B3032E07B691B68434A934282
:103660002AD14FF44060FFF759FE0346B3F5406F8F
:103670001AD0B3F5406F1BD8B3F5006F0CD0B3F57B
:10368000006F15D8002B03D0B3F5806F08D00FE082
:10369000002387F82B3012E0022387F82B300EE04E
:1036A000042387F82B300AE0082387F82B3006E044
:1036B000102387F82B3002E0102387F82B307B692A
:1036C0001B682A4A934240F0A48097F82B30082BBD
:1036D00023D801A252F823F0FD3600081B3700085A
:1036E000053700081B3700080B3700081B37000898
:1036F0001B3700081B37000813370008FFF718FBBB
:10370000786210E01C4B7B620DE0FFF75DFA786297
:1037100009E04FF400437B6205E000237B62012354
:1037200087F82A3000BF7B6A002B00F037817B6965
:103730005B6A124A32F813301A467B6AB3FBF2F323
:10374000BB617B695A6813465B001344BA699A42AD
:1037500005D37B695B681B03BA699A4210D90123C0
:1037600087F82A301AE100BFF369FFCF00800040DC
:1037700000380140004400400024F400BC6C000804
:103780007B6A0022BB60FA607B695B6A8E4A32F812
:1037900013309BB200223B607A60D7E90023D7E95F
:1037A0000201FDF729FA02460B46104619464FF072
:1037B00000024FF000030B0243EA10630202796932
:1037C0004968490800200C46054612EB040843EB03
:1037D00005097B695B6800229A46934652465B4620
:1037E00040464946FDF708FA02460B4613463B623F
:1037F0003B6AB3F5407F08D33B6AB3F5801F04D220
:103800007B691B683A6ADA60C8E0012387F82A30CE
:10381000C4E07B69DB69B3F5004F67D197F82B30C3
:10382000082B28D801A252F823F000BF5138000815
:1038300059380008613800087738000867380008F0
:103840007738000877380008773800086F380008A4
:10385000FFF76EFA786214E0FFF77CFA786210E006
:103860005A4B7B620DE0FFF7AFF9786209E04FF445
:1038700000437B6205E000237B62012387F82A3046
:1038800000BF7B6A002B00F089807B695B6A4E4A2F
:1038900032F813301A467B6AB3FBF2F35A007B69A5
:1038A0005B685B081A447B695B68B2FBF3F33B62BD
:1038B0003B6A0F2B16D93B6AB3F5803F12D23B6AA5
:1038C0009BB223F00F03FB833B6A5B089BB203F0C0
:1038D00007039AB2FB8B1343FB837B691B68FA8B4C
:1038E000DA605BE0012387F82A3057E097F82B3045
:1038F000082B28D801A252F823F000BF2139000874
:1039000029390008313900084739000837390008DB
:103910004739000847390008473900083F3900088F
:10392000FFF706FA786214E0FFF714FA786210E005
:10393000264B7B620DE0FFF747F9786209E04FF410
:1039400000437B6205E000237B62012387F82A3075
:1039500000BF7B6A002B21D07B695B6A1A4A32F870
:1039600013301A467B6AB3FBF2F27B695B685B0833
:103970001A447B695B68B2FBF3F33B623B6A0F2B33
:1039800009D93B6AB3F5803F05D23B6A9AB27B699D
:103990001B68DA6002E0012387F82A307B69012284
:1039A000A3F86A207B690122A3F868207B690022C2
:1039B0005A677B6900229A6797F82A301846303791
:1039C000BD46BDE8B08F00BFBC6C00080024F40009
:1039D00080B483B000AF78607B689B6A03F001031A
:1039E000002B0AD07B681B685B6823F400317B687E
:1039F000DA6A7B681B680A435A607B689B6A03F03B
:103A00000203002B0AD07B681B685B6823F48031BB
:103A10007B681A6B7B681B680A435A607B689B6AE9
:103A200003F00403002B0AD07B681B685B6823F457
:103A300080217B685A6B7B681B680A435A607B68ED
:103A40009B6A03F00803002B0AD07B681B685B6845
:103A500023F400417B689A6B7B681B680A435A60B9
:103A60007B689B6A03F01003002B0AD07B681B68FD
:103A70009B6823F480517B68DA6B7B681B680A4380
:103A80009A607B689B6A03F02003002B0AD07B6856
:103A90001B689B6823F400517B681A6C7B681B6869
:103AA0000A439A607B689B6A03F04003002B1AD09C
:103AB0007B681B685B6823F480117B685A6C7B68A9
:103AC0001B680A435A607B685B6CB3F5801F0AD1A0
:103AD0007B681B685B6823F4C0017B689A6C7B6819
:103AE0001B680A435A607B689B6A03F08003002BC3
:103AF0000AD07B681B685B6823F400217B68DA6C62
:103B00007B681B680A435A6000BF0C37BD4680BC07
:103B1000704780B586B002AF78607B680022C3F83A
:103B20009020FDF763FEF8607B681B681B6803F05C
:103B30000803082B0ED16FF07E430093FB68002230
:103B40004FF40011786800F032F80346002B01D0E2
:103B5000032328E07B681B681B6803F00403042B25
:103B60000ED16FF07E430093FB6800224FF480017A
:103B7000786800F01CF80346002B01D0032312E004
:103B80007B682022C3F888207B682022C3F88C2021
:103B90007B680022DA667B6800221A677B68002255
:103BA00083F88420002318461037BD4680BD80B5B9
:103BB0009CB000AFF860B9603B601346FB71A9E0B0
:103BC000BB6FB3F1FF3F00F0A580FDF70FFE02468B
:103BD0003B68D31ABA6F9A4202D3BB6F002B40D115
:103BE000FB681B683B653B6D53E8003FFB64FB6C67
:103BF00023F4D0737B66FB681B681A467B6EFB65FB
:103C0000BA65B96DFA6D41E800237B657B6D002BC9
:103C1000E6D1FB681B680833FB63FB6B53E8003F8E
:103C2000BB63BB6B23F001033B66FB681B68083377
:103C30003A6EBA647B64796CBA6C41E800233B64E9
:103C40003B6C002BE5D1FB682022C3F88820FB6881
:103C50002022C3F88C20FB68002283F884200323F1
:103C600069E0FB681B681B6803F00403002B51D05C
:103C7000FB681B68DB6903F40063B3F5006F49D18F
:103C8000FB681B684FF400621A62FB681B68BB622A
:103C9000BB6A53E8003F7B627B6A23F4D073FB6608
:103CA000FB681B681A46FB6E7B633A63396B7A6B61
:103CB00041E80023FB62FB6A002BE6D1FB681B682E
:103CC00008337B617B6953E8003F3B613B6923F02C
:103CD0000103BB66FB681B680833BA6E3A62FB617E
:103CE000F9693A6A41E80023BB61BB69002BE5D161
:103CF000FB682022C3F88820FB682022C3F88C20B0
:103D0000FB682022C3F89020FB68002283F88420FF
:103D1000032310E0FB681B68DA69BB681340BA68CC
:103D20009A420CBF01230023DBB21A46FB799A4268
:103D30003FF446AF002318467037BD4680BD80B4BF
:103D400085B000AF78607B6893F88430012B01D197
:103D5000022327E07B68012283F884207B682422E9
:103D6000C3F888207B681B681B68FB607B681B6846
:103D70001A687B681B6822F001021A60FB6823F056
:103D80000053FB607B6800225A667B681B68FA68F8
:103D90001A607B682022C3F888207B68002283F8A1
:103DA0008420002318461437BD4680BC704780B578
:103DB00084B000AF786039607B6893F88430012B61
:103DC00001D102232DE07B68012283F884207B68E7
:103DD0002422C3F888207B681B681B68FB607B6813
:103DE0001B681A687B681B6822F001021A607B68F6
:103DF0001B689B6823F060417B681B683A680A4334
:103E00009A60786800F050F87B681B68FA681A605E
:103E10007B682022C3F888207B68002283F88420F6
:103E2000002318461037BD4680BD80B584B000AF72
:103E3000786039607B6893F88430012B01D10223CC
:103E40002DE07B68012283F884207B682422C3F85C
:103E500088207B681B681B68FB607B681B681A688E
:103E60007B681B6822F001021A607B681B689B68F4
:103E700023F060617B681B683A680A439A6078683F
:103E800000F012F87B681B68FA681A607B682022D1
:103E9000C3F888207B68002283F88420002318461A
:103EA0001037BD4680BD000080B485B000AF78609B
:103EB0007B685B6E002B08D17B680122A3F86A2027
:103EC0007B680122A3F8682031E00823FB730823F4
:103ED000BB737B681B689B685B0EDBB203F0070358
:103EE0007B737B681B689B685B0FDBB203F0070387
:103EF0003B73BB7B3A7B10498A5C02FB03F33A7B42
:103F00000E498A5C93FBF2F39AB27B68A3F86A20AD
:103F1000FB7B7A7B08498A5C02FB03F37A7B0749C7
:103F20008A5C93FBF2F39AB27B68A3F8682000BF27
:103F30001437BD4680BC7047D46C0008DC6C0008A8
:103F40002DE9F04788B0002B1F461446B8BF03F197
:103F50000043129A109DDDF84CA0B6BF1F46002307
:103F60002D231370149B23F02008B8F1460F05D0C1
:103F7000B8F1450F00D10135022300E0032307AA61
:103F8000049206AACDE902A2CDE9003522463B46BD
:103F900000F04AFEB8F1470F064602D1119BDB073D
:103FA00022D5B8F1460F06EB050910D13378302B36
:103FB0000AD10022002320463946FCF75DFD18B9DE
:103FC000C5F10105CAF80050DAF800309944002222
:103FD000002320463946FCF74FFD08B1CDF81C9070
:103FE0003022079B4B4507D3079B159A9B1B3046F6
:103FF000136008B0BDE8F087591C07911A70F0E70C
:10400000F7B503460029B8BF494203F8022BB4BFF5
:104010002D222B22092942702ADD0DF107021746B5
:104020000A26944691FBF6F506FB151430340CF87D
:10403000014C0C46632C02F1FF322946F1DC303191
:10404000ACF1020402F8011C411C2246BA420AD318
:104050000DF10902A2EB0C02BC4288BF00221344FE
:10406000181A03B0F0BD12F8015B01F8015FEDE72B
:10407000302330318370C170031DF1E72DE9F04F1B
:1040800091B00C46DDF8688016461F46054600F0E4
:10409000CDFC036809931846FCF7C2F800230E9381
:1040A000D8F800300A90073323F0070303F1080221
:1040B00094F81890D4F800B0C8F80020D3E900A80C
:1040C00052464346C4E9122328F000430B930B9950
:1040D0009C4B4FF0FF325046FCF700FD70BB994BF4
:1040E0000B994FF0FF325046FCF7DAFC30BB002250
:1040F000002350464146FCF7C9FC10B12D2384F83B
:104100004330914A914BB9F1470F94BF904698467E
:10411000032323612BF0040323604FF0000A009770
:1041200033460FAA2146284600F0D4F9013040F06A
:104130008F804FF0FF3011B0BDE8F08F52464346FC
:1041400050464146FCF7CAFC40B1B8F1000FBCBF75
:104150002D2384F843307E4A7E4BD4E763685A1C93
:1041600009F0DF0142D106236360002206920EAA05
:10417000CDE904920DAA4BF4806303920DF1330252
:10418000CDE90132236063680093524643462846D6
:104190000B91FFF7D5FE0B99472980460D9908D161
:1041A000C81C02DB6368994240DDA9F102095FFA8D
:1041B00089F9B9F1650F1FD801394A4604F1500059
:1041C0000D91FFF71DFF0E9A1318012A82462361F5
:1041D00002DC2268D20701D5013323619DF8333018
:1041E000002B9CD02D2384F8433098E74729BCD17D
:1041F000002BBAD10123B7E7B9F1660F18D1002916
:1042000063680BDD216113B92268D00702D5013341
:104210000B442361A1654FF0000ADFE713B9226860
:10422000D20701D50233F4E70123F2E74FF0670923
:104230000E9B994205DB23682161D807EAD54B1C08
:10424000E7E70029D4BFC1F1020201221344E0E7ED
:1042500023685A0507D42369424631462846B847A1
:1042600001302BD165E7B9F1650F40F2DC80D4E96C
:10427000120100220023FCF7FFFB002833D0364A4E
:10428000012331462846B84701303FF452AFDDE9FB
:104290000D239A4202DB2368D8070FD5DDE90923F5
:1042A00031462846B84701303FF443AF4FF000088D
:1042B00004F11A090E9B013B434509DC23689B0767
:1042C00000F10381E0680F9B9842B8BF184632E7BF
:1042D00001234A4631462846B84701303FF429AF0A
:1042E00008F10108E6E70D9B002B37DC1A4A012391
:1042F00031462846B84701303FF41BAFDDE90D32A7
:10430000134302D12368D907D8D5DDE90923314603
:104310002846B84701303FF40CAF4FF0000904F1D4
:104320001A0A0D9B5B424B4501DC0E9B94E701236F
:10433000524631462846B84701303FF4FAAE09F1FB
:104340000109EEE7FFFFEF7FE46C0008E86C00086E
:10435000EC6C0008F06C0008F46C00080E9AA36D79
:104360009A42A8BF1A46002A914637DC4FF0000B4C
:1043700029EAE97904F11A02D4F858A0AAEB090352
:104380005B4533DCDDE90D239A423BDB2368DA072A
:1043900038D4DDE90D32A2EB0309A2EB0A02914504
:1043A000A8BF9146B9F1000F34DC4FF0000829EAAC
:1043B000E97904F11A0ADDE90D239B1AA3EB09033D
:1043C00043457FF77BAF0123524631462846B84725
:1043D00001303FF4AEAE08F10108ECE71346314678
:1043E00042462846B8470130C0D1A2E601233146F3
:1043F00028460B92B84701303FF49BAE0B9A0BF165
:10440000010BB9E7DDE9092331462846B8470130F9
:10441000BFD18EE64B4608EB0A0231462846B84724
:104420000130C2D185E60E9A012A01DCDB0739D5BD
:104430000123424631462846B84701303FF479AE61
:10444000DDE9092331462846B84701303FF471AE13
:10445000D4E9120100220023DDF83890FCF70CFBB0
:10446000D8B909F1FF3308F1010231462846B847AF
:1044700001300ED15DE601234A4631462846B84751
:1044800001303FF456AE08F101080E9B013B434555
:10449000F1DC534604F15002DFE64FF0000804F16E
:1044A0001A09F2E701234246DFE701234A46314673
:1044B0002846B84701303FF43CAE08F10108E368F4
:1044C0000F995B1A4345F0DCFCE64FF0000804F15D
:1044D0001909F4E72DE9F047164699468A680B69F1
:1044E000DDF820809342B8BF1346336091F8432033
:1044F00007460C460AB1013333602368990642BF70
:10450000336802333360256815F0060506D104F1DF
:10451000190AE36832689B1AAB4226DC94F8432000
:10452000131E226818BF012392062BD404F1430204
:1045300049463846C04701301ED02368226903F03F
:104540000603042B02BFE5683368ED1AA3680CBFAD
:1045500025EAE57500259342C4BF9B1AED18002695
:104560001A34B5421AD1002008E0012352464946C8
:104570003846C047013003D14FF0FF30BDE8F08727
:104580000135C6E7E1185A1C302081F84300224467
:1045900094F8451082F843100233C7E701232246FE
:1045A00049463846C0470130E6D00136D9E7000019
:1045B0002DE9FF470F7E0C9D782F914680460C46D3
:1045C0009A4601F1430207D8622F0AD8002F00F063
:1045D000D480582F00F0C08004F1420584F8427066
:1045E0003AE0A7F16303152BF6D801A151F823F0A7
:1045F000494600085D460008D9450008D94500082D
:10460000D9450008D94500085D460008D94500088D
:10461000D9450008D9450008D94500086147000878
:10462000894600081B470008D9450008D9450008FD
:1046300083470008D945000889460008D945000885
:10464000D9450008234700082B681A1D1B682A60FB
:1046500004F1420584F8423001239FE020682B6872
:10466000070603F10401296001D51E6803E0460630
:10467000FBD5B3F90060002E03DA2D23764284F8CF
:1046800043305A480A2312E02B682068191D29601C
:10469000050601D51E6802E04106FBD51E88534879
:1046A0006F2F0CBF08230A23002184F8431065688C
:1046B000A560002DA2BF216821F0040121600EB980
:1046C000002D4BD01546B6FBF3F103FB1167C75D18
:1046D00005F8017D3746BB420E46F4D9082B0BD1B5
:1046E0002368DE0708D5236961689942DEBF30235D
:1046F00005F8013C05F1FF35521B2261CDF800A001
:104700004B4603AA21464046FFF7E4FE01304AD15A
:104710004FF0FF3004B0BDE8F087236843F020037A
:1047200023603348782784F84570236829681F067A
:1047300051F8046B02D45F0648BFB6B2DF0748BF2A
:1047400043F02003296048BF23601EB9236823F08B
:10475000200323601023A7E72448E4E71546BDE7BC
:104760002B6826686169181D286035061B6801D50D
:10477000196002E07006FBD51980002323611546FD
:10478000BCE72B681A1D2A601D6862680021284654
:10479000FBF7F6FC08B1401B6060636823610023EF
:1047A00084F84330AAE723692A4649464046D04761
:1047B0000130ADD023689B0713D4E068039B984277
:1047C000B8BF1846A6E70123324649464046D047BF
:1047D00001309DD00135E36803995B1AAB42F2DCEE
:1047E000EBE7002504F11906F5E700BFF66C0008B9
:1047F000076D0008002310B50446C0E90033C0E986
:104800000433836081814366C28183611946082233
:104810005C3000F002F9054B6362054BA362054B67
:10482000E362054B2462236310BD00BF9549000875
:10483000B7490008EF490008134A0008024A034933
:10484000034800F069B800BF0C0000208564000830
:104850001800002041680C4B994210B5044601D065
:1048600001F010FEA168094B994202D0204601F0E8
:1048700009FEE168064B994204D02046BDE810408D
:1048800001F000BE10BD00BF8C020020F402002029
:104890005C03002010B50B4B0B4C0C4A1A602046F1
:1048A00000220421FFF7A6FF04F16800012209217C
:1048B000FFF7A0FF04F1D0000222BDE81040122152
:1048C000FFF798BFC40300208C0200203D48000879
:1048D000014800F01FB900BFCD030020014800F0DF
:1048E0001AB900BFCD03002010B50446FFF7F0FF52
:1048F000236A1BB1BDE81040FFF7F0BF044B2362F1
:10490000044B1B68002BF5D1FFF7C4FFF2E700BF93
:1049100055480008C40300202DE9F843074688469F
:1049200014460026D4E90195B9F1010905D524689A
:10493000002CF7D13046BDE8F883AB89012B07D9AD
:10494000B5F90E30013303D029463846C047064337
:104950006835E9E70EB400B59CB01DAB0290069037
:104960006FF00041094807910491094953F8042B5D
:1049700005910068019302A901F004FC029B00224A
:104980001A701CB05DF804EB03B07047640000209F
:104990000802FFFF10B50C46B1F90E1000F06CF8DC
:1049A0000028ABBF636DA3891B1823F48053ACBFF1
:1049B0006365A38110BD2DE9F0411F468B89DB059E
:1049C00005460C46164605D5B1F90E100223002205
:1049D00000F040F8A389B4F90E1023F48053A381AA
:1049E00032463B462846BDE8F04100F057B810B5C6
:1049F0000C46B1F90E1000F02DF8431CA38915BF29
:104A0000606523F4805343F48053A38118BFA381CE
:104A100010BDB1F90E1000F00DB8024403469342E8
:104A200000D1704703F8011BF9E700000048704708
:104A30005801002038B5064D0023044608462B6077
:104A4000FCF7D1FD431C02D12B6803B1236038BDB4
:104A5000C803002038B5074D044608461146002219
:104A60002A601A46FCF7E3FD431C02D12B6803B110
:104A7000236038BDC803002038B5074D04460846FA
:104A8000114600222A601A46FCF774FD431C02D12D
:104A90002B6803B1236038BDC803002038B5074D2B
:104AA00004460846114600222A601A46FCF77FFD9C
:104AB000431C02D12B6803B1236038BDC80300201A
:104AC000014B1868704700BF6400002070B50D4DA1
:104AD0000D4C641BA4100026A64209D10B4D0C4CB2
:104AE00002F070F8641BA4100026A64205D170BD28
:104AF00055F8043B98470136EEE755F8043B9847D4
:104B00000136F2E75C7000085C7000085C70000819
:104B100060700008704770472DE9F74F03690C6912
:104B2000A34207467BDB013C01F1140800F11405A8
:104B300005EB8403019358F8243055F82420013301
:104B40009A424FEA840B08EB8409B2FBF3F62ED3AA
:104B50004FF0000E4046AC46F24650F8042B93B29C
:104B600006FB03E34FEA124E1A0C9BB206FB0E2221
:104B7000AAEB0303DCF800A04FEA124E92B213FA3C
:104B80008AF3C2EB1A4202EB23429BB243EA02438E
:104B900081454CF8043B4FEA224ADED255F80B30EF
:104BA0002BB9019B043B9D421A462CD33C613846ED
:104BB00001F094F9002822DB01362946002058F83C
:104BC000042BD1F800C093B2C31A120C13FA8CF361
:104BD000C2EB1C4202EB23429BB243EA0243C145B3
:104BE00041F8043B4FEA2240E9D255F8242005EB76
:104BF000840322B9043B9D421A460AD33C613046E5
:104C000003B0BDE8F08F1268043B002ACED1013C0E
:104C1000C9E71268043B002AF0D1013CEBE7002011
:104C2000EEE70000000000002DE9F04FC46999B0E4
:104C300016461F46CDE90467DDF89480054674B931
:104C4000102000F01BFE0246E86120B9AA4BEF21BC
:104C5000AA4801F077FCC0E901440460C460EB6934
:104C6000196851B15A684A60012393408B60284605
:104C700000F0F8FEEB6900221A603B1EB9BF23F07A
:104C8000004305930023C8F80030DDF814909C4BD6
:104C9000BCBF0122C8F8002033EA090319D1249AC5
:104CA00042F20F731360C9F31303334300F0878597
:104CB000269B53B9934B23E0934B03930833269AD7
:104CC0001360039819B0BDE8F08F8E4B0393033344
:104CD000F5E7DDE90434CDE90C34DDE90C0100220F
:104CE0000023FBF7C9FE804660B1249A01231360BC
:104CF000269B002B00F06085844B269A1360013BB5
:104D00000393DEE716AB019317AB00932846DDE96A
:104D10000C2301F087F9C9F30A548246002C7DD098
:104D20000D9BCDF84C80C3F31303DDE90C0143F078
:104D30007F5343F44013A4F2FF3419460022744B0E
:104D4000FBF77AFA66A3D3E90023FBF72DFC66A3F1
:104D5000D3E90023FBF772FA064620460F46FBF71D
:104D6000B9FB63A3D3E90023FBF71EFC02460B4605
:104D700030463946FBF762FA06460F46FBF7C4FE9B
:104D800000228346002330463946FBF77FFE48B1B8
:104D90005846FBF79FFB32463B46FBF76DFE08B9D2
:104DA0000BF1FF3BBBF1160F56D85A4B03EBCB036D
:104DB000D3E90023DDE90C01FBF768FE00284DD0A4
:104DC0000BF1FF3B00230F93169B1B1B5A1E44BF86
:104DD000C3F101090023099254BF4FF00009099360
:104DE000BBF1000F3CDB099BCDF838B05B44099365
:104DF00000230A93229B092B66D8052BC4BF043BD2
:104E00002293229BA3F10203CCBF00240124032B95
:104E100000F28480DFE803F02C393756DDE91643D1
:104E20001C4404F23243202BC1BFC3F1400309FAF2
:104E300003F904F2124326FA03F3D6BFC3F12003A9
:104E400049EA030006FA03F0FBF734FB0122A1F163
:104E5000F873013C139270E70123B4E70F90B3E7B6
:104E6000CBF100030A930023A9EB0B090E93C1E7D2
:104E700000230B93239B002B53DC01230693089301
:104E80001A4623920BE00123F3E700230B93239BA5
:104E90005B4406930133012B0893B8BF0123E869F3
:104EA0000021042202F114069E423ED941602846A8
:104EB00000F098FD039000283AD1174B024640F2CB
:104EC000AF11C5E60123E1E70124002322930B94EF
:104ED0004FF0FF330693089300221223D1E700BF5F
:104EE00061436F63A787D23FB3C8608B288AC63FF0
:104EF000FB799F501344D33F256D00083C6D00089B
:104F00000000F07F216D0008186D0008F56C0008A6
:104F10000000F83F286E0008946D000801230B93F1
:104F2000D6E7239B06930893B9E701315200B9E70E
:104F3000EB69039A1A60089B0E2B00F2A880002CE4
:104F400000F0A580BBF1000F34DD9A4B0BF00F028F
:104F500003EBC203D3E900341BF4807FCDE91034A6
:104F60004FEA2B1416D0944BDDE90C01D3E908234A
:104F7000FBF744FCCDE9040104F00F0403278E4E37
:104F800054B9DDE91023DDE90401FBF737FCCDE975
:104F9000040129E00227F2E7E10708D5DDE9100165
:104FA000D6E90023FBF700FBCDE9100101376410BF
:104FB0000836E5E700F0A580CBF100047D4B7E4E7E
:104FC00004F00F0203EBC203D3E90023DDE90C0177
:104FD000FBF7EAFACDE90401241100230227002C93
:104FE00040F08480002BD2D1DDE90434CDE91034C7
:104FF0000F9B002B00F08780DDE910016F4B002232
:10500000FBF744FD00287ED0089B002B7BD0069B3D
:10501000002B38DDDDE91001694B0022FBF7C4FAF3
:10502000CDE90401069C0BF1FF3801373846FBF748
:1050300051FADDE90423FBF7B7FA624B0022FBF7D4
:10504000FDF8A1F15076CDE910011196002C5DD14B
:10505000DDE904015C4B0022FBF7EEF802460B464B
:10506000CDE90423109A3346FBF72EFD002840F0CB
:105070009582DDE90401109A06F10043FBF706FD75
:10508000002840F08982DDE90C34CDE90434179B17
:10509000002BC0F25181BBF10E0F00F34D81454B47
:1050A00003EBCB03D3E90034CDE90634239B002B7B
:1050B00080F2DA80089B002B00F3D68040F06B82F0
:1050C000414B0022DDE90601FBF76EFADDE904231E
:1050D000FBF7F0FC089C2646002840F04182039F25
:1050E000312307F8013B0BF1010B3DE2E20705D547
:1050F000D6E90023FBF758FA01370123641008367C
:105100006DE7022770E7089CD8468FE70399294B83
:10511000214412910B9903EBC403DDE9106753E9B5
:105120000223002954D029490020FBF767FB3B46A6
:105130003246FBF781F8CDE91001039FDDE9040158
:10514000FBF7E2FC0446FBF7C5F902460B46DDE936
:105150000401FBF771F8303402460B46CDE9042315
:1051600007F8014BDDE91023FBF790FC002873D111
:10517000DDE9042311490020FBF75EF8DDE9102387
:10518000FBF784FC002840F0B680129B9F423FF45E
:105190007AAFDDE910010A4B0022FBF705FA084B54
:1051A000CDE910010022DDE90401FBF7FDF9CDE9AD
:1051B0000401C3E7286E0008006E00080000F03FFD
:1051C0000000244000001C40000014400000E03FAC
:1051D00030463946FBF7E8F9CDE91001129B039CF4
:1051E0001493DDE90401FBF78FFC1590FBF772F9CE
:1051F00002460B46DDE90401FBF71EF8159B303330
:1052000004F8013B129B9C4206460F464FF00002F9
:1052100024D1B04BDDE91001FBF710F802460B4634
:1052200030463946FBF750FC002863D1DDE91023F6
:10523000A8490020FBF700F802460B4630463946E5
:10524000FBF724FC00283FF41EAF149F7B1E149331
:1052500017F8013C302BF8D0C3463BE09E4BFBF7E0
:10526000A3F9CDE90401BCE7DDE90489039FDDE989
:10527000062340464946FBF7C1FAFBF745FC0446C6
:10528000FBF728F9DDE90623FBF78EF904F1300678
:1052900002460B4640464946FAF7CEFF07F8016B37
:1052A000039EDDF820C0BE1BB44502460B4636D136
:1052B000FAF7C4FFDDE9062380468946FBF704FCC4
:1052C00058BBDDE9062340464946FBF7D5FB08B14C
:1052D000E30722D45146284600F0C4FB0023249A59
:1052E0003B700BF101031360269B002B3FF4E9ACEC
:1052F0001F60E6E427463B461F4613F8012D392A76
:1053000007D1039A9A42F7D10399302208F1010894
:105310000A701A7801321A709EE7D846EBE76E4B96
:105320000022FBF741F90022002380468946FBF763
:10533000A3FB00289BD0CDE70B9A002A00F0C48085
:10534000229A012A00F3A880139A002A00F0A08074
:1053500003F233430A9C4F46099A01211A44284616
:105360009944099200F034FC06465FB1099B002B7A
:1053700008DDBB42099AA8BF3B46A9EB0309FF1A07
:10538000D31A09930A9BF3B10B9B002B00F0A0806A
:10539000002C10DD31462246284600F0D9FC52464A
:1053A00001460646284600F029FC5146804628461C
:1053B00000F058FBC2460A9B1A1B04D051462846EF
:1053C00000F0C6FC82460121284600F001FC0E9B3D
:1053D000002B044640F382801A460146284600F01E
:1053E000B7FC229B012B04467BDD4FF000082369AC
:1053F00004EB8303186900F09DFBC0F12000099BBA
:10540000184410F01F0000F09280C0F12003042B1C
:1054100040F38580099BC0F11C000344814407448C
:105420000993B9F1000F05DD51464A46284600F0C0
:10543000E9FC8246099B002B05DD21461A462846D9
:1054400000F0E0FC04460F9B002B72D02146504632
:1054500000F044FD00286CDA002351460A22284659
:1054600000F022FB0B9B0BF1FF3B8246002B00F070
:10547000AD81002331460A22284600F015FB069B29
:10548000002B064600F39380229B022B59DC8EE012
:10549000169BC3F136035DE7089B5C1E0A9BA34283
:1054A000BFBF0A9B0E9A0A94E31AB4BFD2181C1B02
:1054B000089BBCBF0E920024002BB5BFA9EB0307CD
:1054C000089B00234F4647E70A9C0B9E4F464CE73C
:1054D0000A9A73E70000E03F00002440229B012B62
:1054E00018DC049BB3B9059BC3F3130393B9059B65
:1054F00023F000431B0D1B057BB1099B013309F110
:10550000010909934FF001080E9B002B7FF46FAF48
:10551000012074E74FF00008F6E79846F4E780D0E2
:10552000099A1C331A4499441F44099279E70346A7
:10553000F6E7089B002B34DC229B022B31DD089B15
:105540000693069B63B921460522284600F0ACFA73
:1055500001460446504600F0C1FC00283FF7BFADAD
:10556000239B039F6FEA030B4FF000082146284658
:1055700000F078FA002E3FF4ADAEB8F1000F05D080
:10558000B04503D04146284600F06CFA3146284623
:1055900000F068FA9EE600242646E1E7C346264668
:1055A0009DE50B9B002B00F0C880089B0693002F05
:1055B00005DD31463A46284600F024FC0646B8F19F
:1055C000000F5BD07168284600F00CFA074628B936
:1055D000824B024640F2EF21FFF73ABB32690232BA
:1055E000920006F10C010C3000F09EFF01223946BA
:1055F000284600F007FC039B039A01330893069B9F
:1056000013440B93049B03F00103B0460A93064630
:10561000089B2146013B50460493FFF77DFA414623
:10562000069000F13009504600F058FC32460990CF
:105630002146284600F06EFCC268074602BB0146C0
:10564000504600F04BFC0246394628460C9200F0CA
:1056500009FA229B0C9A089F43EA02010A9B19430C
:1056600010D1B9F1390F29D0099B002B02DD069B1F
:1056700003F13109049B83F8009077E73046BAE7DD
:105680000122E1E7099B002B04DB22990B430A99D5
:105690000B4320D1002AEDDD51460122284600F0BF
:1056A000B1FB2146824600F019FC002803DCE1D161
:1056B00019F0010FDED0B9F1390FD8D1049A39238E
:1056C00013703B461F46013B17F8012C392A6CD05A
:1056D00001321A704AE7002A07DDB9F1390FEDD01F
:1056E000049A09F10103137040E7089B0B9A03F831
:1056F000019C934243D0514600230A22284600F0E1
:10570000D3F9B04582464FF000034FF00A024146FC
:10571000284607D100F0C8F980460646089B0133A9
:10572000089375E700F0C0F93146804600230A224D
:10573000284600F0B9F90646F0E7089B0693039F58
:1057400021465046FFF7E8F900F13009039B07F8BE
:10575000019BFA1A069B934207DD514600230A2259
:10576000284600F0A1F98246EAE7069B002BC8BF55
:105770001F46039BD8BF01271F444FF00008514626
:105780000122284600F03EFB2146824600F0A6FB9F
:10579000002896DC02D119F0010F92D13B461F463A
:1057A00013F8012D302AFAD0E0E6039A9A4289D103
:1057B0000BF1010B312396E7094BFFF7A1BA269BAA
:1057C000002B7FF479AA074BFFF79ABA069B002BB0
:1057D000B5DC229B022B3FF7B4AEB0E7946D000816
:1057E000F46C0008186D000838B50546002941D052
:1057F00051F8043C0C1F002BB8BFE41800F0E6F889
:105800001D4A136833B9636014602846BDE8384008
:1058100000F0E2B8A34208D9206821188B4201BFEA
:1058200019685B6809182160EDE71A465B680BB1DF
:10583000A342FAD911685018A0420BD12068014444
:10584000501883421160E0D118685B6853600844C7
:105850001060DAE702D90C232B60D6E72068211804
:105860008B4204BF19685B68636004BF091821603C
:105870005460CAE738BD00BFD0030020024B014688
:10588000186800F023B800BF6400002070B50E4E09
:105890000C463168054611B900F036FE30602146ED
:1058A000284600F031FE431C0AD0C41C24F0030437
:1058B000A04207D0211A284600F026FE013001D16F
:1058C0004FF0FF34204670BDD40300202DE9F8438B
:1058D000CD1C25F0030508350C2D38BF0C25002DF7
:1058E000074601DBA94205D90C233B600026304660
:1058F000BDE8F883DFF8D08000F068F8D8F8003011
:105900001C465CBB29463846FFF7C0FF431C0446D3
:1059100055D1D8F800402646002E45D1002C48D05D
:1059200023683146384604EB030900F0EDFD81455C
:105930003FD121686D1A29463846FFF7A7FF01308D
:1059400037D023682B442360D8F80030002B38D0A0
:105950005A68A2422BD100225A600FE02268521BE3
:105960001FD40B2A17D96119A342256018BF5960AB
:10597000636808BFC8F8001062514B60384604F1F4
:105980000B0600F029F826F00706231DF21AAED008
:105990009B1BA350ABE7A3426268DDD1C8F800208F
:1059A000ECE723466468ACE734467668B4E7134610
:1059B000CCE70C233B60384600F00EF897E72560F3
:1059C000DCE75B60FFDE00BFD00300200148FFF78B
:1059D000A1B800BFCC0300200148FFF79CB800BF6E
:1059E000CC03002070B5C66904460D4676B9102078
:1059F000FFF744FF0246E06120B9184B18486B21BD
:105A000000F0A0FDC0E901660660C660E669F368C3
:105A100083B1E369DB6853F82500B8B9012101FAC5
:105A200005F6721D9200204600F0AAFD60B1C0E9A3
:105A300001560EE021220421204600F0A1FDE36979
:105A4000F060DB68002BE4D1002070BD026843F8F1
:105A500025200023C0E90333F7E700BF256D0008C8
:105A6000A56D000870B5C66905460C4676B91020CC
:105A7000FFF704FF0246E86120B9094B09488F216E
:105A800000F060FDC0E901660660C6603CB1EB69EC
:105A90006268DB6853F82210216043F8224070BD31
:105AA000256D0008A56D00082DE9F0410D69074638
:105AB0000C461E4601F1140C0020DCF8003099B2AF
:105AC00002FB01611E0C0B0C02FB063389B2013094
:105AD00001EB034185424CF8041B4FEA1346ECDC12
