:020000040800F2
:1000000000800020E9350008B91A0008BB1A000872
:10001000BD1A0008BF1A0008C11A0008000000003D
:10002000000000000000000000000000C31A0008EB
:10003000C51A000800000000C71A0008C91A000805
:100040003936000839360008D11A00083936000858
:1000500039360008393600083936000839360008C4
:1000600039360008393600083936000839360008B4
:10007000393600083936000839360008ED1A00080C
:100080003936000839360008393600083936000894
:1000900000000000393600083936000839360008FB
:1000A0003936000839360008393600083936000874
:1000B0003936000839360008393600083936000864
:1000C0003936000839360008393600083936000854
:1000D000FD1A00083936000839360008393600089C
:1000E00039360008E11A00080D1B000839360008EF
:1000F0003936000800000000000000003936000812
:1001000039360008393600081D1B0008393600084A
:100110003936000839360008393600083936000803
:1001200039360008393600083936000839360008F3
:080130003936000839360008D9
:1001400010B5054C237833B9044B13B10448AFF311
:1001500000800123237010BDA802002000000000D1
:10016000606E010808B5034B1BB103490348AFF3A8
:10017000008008BD00000000AC020020606E010895
:1001800001F0FF01102A2BDB10F0070F08D010F848
:10019000013B013A8B422DD010F0070F42B3F6D14C
:1001A000F0B441EA012141EA014122F007047FF065
:1001B00000070023F0E80256083C85EA010586EABC
:1001C000010685FA47F5A3FA87F586FA47F6A5FAF8
:1001D00087F68EB9EED1F0BC01F0FF0102F0070204
:1001E00032B110F8013B013A83EA010313B1F8D1AF
:1001F0000020704701387047002D06BF3546033890
:10020000073815F0010F07D1013015F4807F02BFC8
:10021000013015F4C03F0130F0BC0138704700BF19
:10022000034613F8012B002AFBD1181A0138704736
:1002300081F0004102E000BF83F0004330B54FEA97
:1002400041044FEA430594EA050F08BF90EA020F04
:100250001FBF54EA000C55EA020C7FEA645C7FEA97
:10026000655C00F0E2804FEA5454D4EB5555B8BFBA
:100270006D420CDD2C4480EA020281EA030382EA2B
:10028000000083EA010180EA020281EA0303362DBD
:1002900088BF30BD11F0004F4FEA01314FF4801C90
:1002A0004CEA113102D0404261EB410113F0004FA2
:1002B0004FEA03334CEA133302D0524263EB430359
:1002C00094EA050F00F0A780A4F10104D5F1200EF7
:1002D0000DDB02FA0EFC22FA05F2801841F1000152
:1002E00003FA0EF2801843FA05F359410EE0A5F126
:1002F00020050EF1200E012A03FA0EFC28BF4CF057
:10030000020C43FA05F3C01851EBE37101F000450C
:1003100007D54FF0000EDCF1000C7EEB00006EEB19
:100320000101B1F5801F1BD3B1F5001F0CD34908A3
:100330005FEA30004FEA3C0C04F101044FEA4452FA
:1003400012F5800F80F09A80BCF1004F08BF5FEA81
:10035000500C50F1000041EB045141EA050130BD61
:100360005FEA4C0C404141EB0101013C28BFB1F573
:10037000801FE9D291F0000F04BF01460020B1FABE
:1003800081F308BF2033A3F10B03B3F120020CDA91
:100390000C3208DD02F1140CC2F10C0201FA0CF06F
:1003A00021FA02F10CE002F11402D8BFC2F1200CD4
:1003B00001FA02F120FA0CFCDCBF41EA0C0190408A
:1003C000E41AA2BF01EB0451294330BD6FEA0404D3
:1003D0001F3C1CDA0C340EDC04F11404C4F12002BE
:1003E00020FA04F001FA02F340EA030021FA04F3D0
:1003F00045EA030130BDC4F10C04C4F1200220FA27
:1004000002F001FA04F340EA0300294630BD21FA64
:1004100004F0294630BD94F0000F83F4801306BF2A
:1004200081F480110134013D4EE77FEA645C18BF1E
:100430007FEA655C29D094EA050F08BF90EA020FB5
:1004400005D054EA000C04BF1946104630BD91EAAD
:10045000030F1EBF0021002030BD5FEA545C05D1B0
:100460004000494128BF41F0004130BD14F58004EF
:100470003CBF01F5801130BD01F0004545F0FE4163
:1004800041F470014FF0000030BD7FEA645C1ABF98
:10049000194610467FEA655C1CBF0B46024650EACF
:1004A000013406BF52EA033591EA030F41F40021FB
:1004B00030BD00BF90F0000F04BF0021704730B581
:1004C0004FF4806404F132044FF000054FF0000156
:1004D00050E700BF90F0000F04BF0021704730B517
:1004E0004FF4806404F1320410F0004548BF4042EC
:1004F0004FF000013EE700BF42004FEAE2014FEA41
:1005000031014FEA02701FBF12F07F4393F07F4F1B
:1005100081F06051704732F07F4208BF704793F01E
:100520007F4F04BF41F40021704730B54FF4607431
:1005300001F0004521F000411CE700BF50EA010234
:1005400008BF704730B54FF000050AE050EA0102DD
:1005500008BF704730B511F0004502D5404261EB4D
:1005600041014FF4806404F132045FEA915C3FF48E
:10057000D8AE4FF003025FEADC0C18BF03325FEA2B
:10058000DC0C18BF033202EBDC02C2F1200300FADC
:1005900003FC20FA02F001FA03FE40EA0E0021FA01
:1005A00002F11444BDE600BF70B54FF0FF0C4CF4EF
:1005B000E06C1CEA11541DBF1CEA135594EA0C0FA1
:1005C00095EA0C0F00F0DEF82C4481EA030621EADC
:1005D0004C5123EA4C5350EA013518BF52EA033517
:1005E00041F4801143F4801338D0A0FB02CE4FF0C9
:1005F0000005E1FB02E506F00042E0FB03E54FF0F9
:100600000006E1FB03569CF0000F18BF4EF0010EF0
:10061000A4F1FF04B6F5007F64F5407404D25FEAEC
:100620004E0E6D4146EB060642EAC62141EA55519F
:100630004FEAC52040EA5E504FEACE2EB4F1FD0CE1
:1006400088BFBCF5E06F1ED8BEF1004F08BF5FEA5F
:10065000500E50F1000041EB045170BD06F0004611
:1006600046EA010140EA020081EA0301B4EB5C04BE
:10067000C2BFD4EB0C0541EA045170BD41F48011B6
:100680004FF0000E013C00F3AB8014F1360FDEBFDB
:10069000002001F0004170BDC4F10004203C35DAB7
:1006A0000C341BDC04F11404C4F1200500FA05F33A
:1006B00020FA04F001FA05F240EA020001F00042DB
:1006C00021F0004110EBD37021FA04F642EB060151
:1006D0005EEA430E08BF20EAD37070BDC4F10C047B
:1006E000C4F1200500FA04F320FA05F001FA04F23F
:1006F00040EA020001F0004110EBD37041F100012B
:100700005EEA430E08BF20EAD37070BDC4F1200535
:1007100000FA05F24EEA020E20FA04F301FA05F29D
:1007200043EA020321FA04F001F0004121FA04F245
:1007300020EA020000EBD3705EEA430E08BF20EA15
:10074000D37070BD94F0000F0FD101F0004640004F
:1007500041EB010111F4801F08BF013CF7D041EAD1
:10076000060195F0000F18BF704703F000465200D5
:1007700043EB030313F4801F08BF013DF7D043EAA6
:100780000603704794EA0C0F0CEA135518BF95EA5C
:100790000C0F0CD050EA410618BF52EA4306D1D1E3
:1007A00081EA030101F000414FF0000070BD50EA02
:1007B000410606BF1046194652EA430619D094EA8C
:1007C0000C0F02D150EA013613D195EA0C0F05D176
:1007D00052EA03361CBF104619460AD181EA0301CA
:1007E00001F0004141F0FE4141F470014FF0000082
:1007F00070BD41F0FE4141F4780170BD70B54FF01D
:10080000FF0C4CF4E06C1CEA11541DBF1CEA13559C
:1008100094EA0C0F95EA0C0F00F0A7F8A4EB05047E
:1008200081EA030E52EA03354FEA013100F0888075
:100830004FEA03334FF0805545EA131343EA12633E
:100840004FEA022245EA111545EA10654FEA0026F3
:100850000EF000419D4208BF964244F1FD0404F5AC
:10086000407402D25B084FEA3202B61A65EB030508
:100870005B084FEA32024FF480104FF4002CB6EBC5
:10088000020E75EB030E22BFB61A754640EA0C0045
:100890005B084FEA3202B6EB020E75EB030E22BF85
:1008A000B61A754640EA5C005B084FEA3202B6EBC6
:1008B000020E75EB030E22BFB61A754640EA9C0085
:1008C0005B084FEA3202B6EB020E75EB030E22BF55
:1008D000B61A754640EADC0055EA060E18D04FEA13
:1008E000051545EA16754FEA06164FEAC30343EAB3
:1008F00052734FEAC2025FEA1C1CC0D111F4801F80
:100900000BD141EA00014FF000004FF0004CB6E778
:1009100011F4801F04BF01430020B4F1FD0C88BF17
:10092000BCF5E06F3FF6AFAEB5EB030C04BFB6EB22
:10093000020C5FEA500C50F1000041EB045170BD15
:100940000EF0004E4EEA113114EB5C04C2BFD4EB42
:100950000C0541EA045170BD41F480114FF0000EC6
:10096000013C90E645EA060E8DE60CEA135594EA42
:100970000C0F08BF95EA0C0F3FF43BAF94EA0C0F45
:100980000AD150EA01347FF434AF95EA0C0F7FF4BA
:1009900025AF104619462CE795EA0C0F06D152EA0E
:1009A00003353FF4FDAE1046194622E750EA4106F2
:1009B00018BF52EA43067FF4C5AE50EA41047FF403
:1009C0000DAF52EA43057FF4EBAE12E74FF0FF3C68
:1009D00006E000BF4FF0010C02E000BF4FF0010C39
:1009E0004DF804CD4FEA410C7FEA6C5C4FEA430CB2
:1009F00018BF7FEA6C5C1BD001B050EA410C0CBF01
:100A000052EA430C91EA030F02BF90EA020F002062
:100A1000704710F1000F91EA030F58BF994208BFC9
:100A200090422CBFD8176FEAE37040F00100704786
:100A30004FEA410C7FEA6C5C02D150EA013C07D1DD
:100A40004FEA430C7FEA6C5CD6D152EA033CD3D028
:100A50005DF8040B704700BF8446104662468C4622
:100A60001946634600E000BF01B5FFF7B7FF002855
:100A700048BF10F1000F01BD4DF808EDFFF7F4FF7E
:100A80000CBF012000205DF808FB00BF4DF808ED09
:100A9000FFF7EAFF34BF012000205DF808FB00BF2C
:100AA0004DF808EDFFF7E0FF94BF012000205DF84E
:100AB00008FB00BF4DF808EDFFF7CEFF94BF012003
:100AC00000205DF808FB00BF4DF808EDFFF7C4FFFC
:100AD00034BF012000205DF808FB00BF4FEA410C45
:100AE0007FEA6C5C02D150EA013C0AD14FEA430C28
:100AF0007FEA6C5C02D152EA033C02D14FF0000065
:100B000070474FF0010070474FEA410212F50012A2
:100B100015D211D56FF47873B3EB625212D94FEA44
:100B2000C12343F0004343EA505311F0004F23FA2E
:100B300002F018BF404270474FF00000704750EA83
:100B4000013005D111F0004008BF6FF00040704740
:100B50004FF00000704700BF4A0011D212F500129A
:100B600011D20DD56FF47873B3EB62520ED44FEA05
:100B7000C12343F0004343EA505323FA02F0704785
:100B80004FF00000704750EA013002D14FF0FF30C3
:100B900070474FF0000070474FEA4102B2F1E04366
:100BA00024BFB3F5001CDCF1FE5C0DD901F0004C54
:100BB0004FEAC0024CEA5070B2F1004F40EB8300A4
:100BC00008BF20F00100704711F0804F21D113F1D0
:100BD0003872BCBF01F00040704741F480114FEA09
:100BE0005252C2F11802C2F1200C10FA0CF320FA92
:100BF00002F018BF40F001004FEAC1234FEAD323AF
:100C000003FA0CFC40EA0C0023FA02F34FEA430318
:100C1000CCE77FEA625307D150EA01331EBF4FF0A1
:100C2000FE4040F44000704701F0004040F0FE40BC
:100C300040F40000704700BF80F0004002E000BFB9
:100C400081F0004142001FBF5FEA410392EA030FB7
:100C50007FEA226C7FEA236C6AD04FEA1262D2EB01
:100C60001363C1BFD218414048404140B8BF5B4206
:100C7000192B88BF704710F0004F40F4000020F09F
:100C80007F4018BF404211F0004F41F4000121F0B5
:100C90007F4118BF494292EA030F3FD0A2F10102FF
:100CA00041FA03FC10EB0C00C3F1200301FA03F13D
:100CB00000F0004302D5494260EB4000B0F5000F60
:100CC00013D3B0F1807F06D340084FEA310102F11F
:100CD0000102FE2A51D2B1F1004F40EBC25008BFD1
:100CE00020F0010040EA03007047490040EB00009B
:100CF000013A28BFB0F5000FEDD2B0FA80FCACF19C
:100D0000080CB2EB0C0200FA0CF0AABF00EBC250C8
:100D100052421843BCBFD0401843704792F0000FB6
:100D200081F4000106BF80F400000132013BB5E709
:100D30004FEA41037FEA226C18BF7FEA236C21D07F
:100D400092EA030F04D092F0000F08BF08467047E4
:100D500090EA010F1CBF0020704712F07F4F04D1B2
:100D6000400028BF40F00040704712F100723CBFC5
:100D700000F50000704700F0004343F0FE4040F4EF
:100D8000000070477FEA226216BF08467FEA2363AD
:100D90000146420206BF5FEA412390EA010F40F498
:100DA000800070474FF0000304E000BF10F00043E4
:100DB00048BF40425FEA000C08BF704743F09643CB
:100DC00001464FF000001CE050EA010208BF7047E6
:100DD0004FF000030AE000BF50EA010208BF70476D
:100DE00011F0004302D5404261EB41015FEA010C82
:100DF00002BF84460146002043F0B64308BFA3F17A
:100E00008053A3F50003BCFA8CF2083AA3EBC2535B
:100E100010DB01FA02FC634400FA02FCC2F120027A
:100E2000BCF1004F20FA02F243EB020008BF20F0B1
:100E30000100704702F1200201FA02FCC2F1200217
:100E400050EA4C0021FA02F243EB020008BF20EA0C
:100E5000DC7070474FF0FF0C1CEAD0521EBF1CEA3A
:100E6000D15392EA0C0F93EA0C0F6FD01A4480EA28
:100E7000010C400218BF5FEA41211ED04FF0006311
:100E800043EA501043EA5111A0FB01310CF000403D
:100E9000B1F5000F3EBF490041EAD3715B0040EA63
:100EA000010062F17F02FD2A1DD8B3F1004F40EB33
:100EB000C25008BF20F00100704790F0000F0CF006
:100EC000004C08BF49024CEA502040EA51207F3ACA
:100ED000C2BFD2F1FF0340EAC250704740F40000A5
:100EE0004FF00003013A5DDC12F1190FDCBF00F096
:100EF00000407047C2F10002410021FA02F1C2F144
:100F0000200200FA02FC5FEA310040F1000053EADF
:100F10004C0308BF20EADC70704792F0000F00F02D
:100F2000004C02BF400010F4000F013AF9D040EA33
:100F30000C0093F0000F01F0004C02BF490011F4C7
:100F4000000F013BF9D041EA0C018FE70CEAD153C5
:100F500092EA0C0F18BF93EA0C0F0AD030F0004C45
:100F600018BF31F0004CD8D180EA010000F00040F9
:100F7000704790F0000F17BF90F0004F084691F0B7
:100F8000000F91F0004F14D092EA0C0F01D14202F1
:100F90000FD193EA0C0F03D14B0218BF084608D1BA
:100FA00080EA010000F0004040F0FE4040F4000004
:100FB000704740F0FE4040F4400070474FF0FF0C97
:100FC0001CEAD0521EBF1CEAD15392EA0C0F93EADE
:100FD0000C0F69D0A2EB030280EA010C49024FEA30
:100FE000402037D04FF0805343EA111143EA1013E9
:100FF0000CF000408B4238BF5B0042F17D024FF4A1
:10100000000C8B4224BF5B1A40EA0C00B3EB510F7B
:1010100024BFA3EB510340EA5C00B3EB910F24BF64
:10102000A3EB910340EA9C00B3EBD10F24BFA3EBE9
:10103000D10340EADC001B0118BF5FEA1C1CE0D1B1
:10104000FD2A3FF650AF8B4240EBC25008BF20F064
:10105000010070470CF0004C4CEA50207F32C2BFB8
:10106000D2F1FF0340EAC250704740F400004FF055
:101070000003013A37E792F0000F00F0004C02BF86
:10108000400010F4000F013AF9D040EA0C0093F050
:10109000000F01F0004C02BF490011F4000F013BAA
:1010A000F9D041EA0C0195E70CEAD15392EA0C0F12
:1010B00008D142027FF47DAF93EA0C0F7FF470AF4A
:1010C000084676E793EA0C0F04D14B023FF44CAF8D
:1010D00008466EE730F0004C18BF31F0004CCAD122
:1010E00030F000427FF45CAF31F000437FF43CAF5E
:1010F0005FE700BF42000ED2B2F1FE4F0BD34FF0BC
:101100009E03B3EB126209D44FEA002343F000437D
:1011100023FA02F070474FF00000704712F1610FA0
:1011200001D1420202D14FF0FF3070474FF0000072
:10113000704700BF7BB972B90029BEBF00204FF0D5
:10114000004106E008BF00281CBF6FF000414FF0CF
:10115000FF3000F0F3B9ADF1080C6DE904CE0029C1
:1011600009DB002B1ADB00F085F8DDF804E0DDE98F
:10117000022304B07047404261EB4101002B1BDBAE
:1011800000F078F8DDF804E0DDE9022304B0404225
:1011900061EB4101524263EB43037047524263EB00
:1011A000430300F067F8DDF804E0DDE9022304B052
:1011B000404261EB41017047524263EB430300F050
:1011C00059F8DDF804E0DDE9022304B0524263EB94
:1011D0004303704753B94AB9002908BF00281CBF10
:1011E0004FF0FF314FF0FF3000F0A8B9ADF1080C1F
:1011F0006DE904CE00F03EF8DDF804E0DDE90223FD
:1012000004B0704738B505460C46284621460022F2
:101210000023FFF73BFC28B928462146BDE83840AB
:1012200000F00AB8284604F1004100F005F84042F9
:1012300061EB410138BD00BFD0B50C4B0022064622
:101240000F46FFF7B1F9FFF787FC0446FFF732F9C5
:10125000074B0022FFF7A8F902460B4630463946F5
:10126000FEF7EAFFFFF778FC2146D0BD0000F03D15
:101270000000F0412DE9F047089E0D4604460F4658
:10128000002B4AD18A42944665D9B2FA82F343B11F
:1012900002FA03FCC3F120029F4020FA02F2174336
:1012A0009C404FEA1C4E1FFA8CF5B7FBFEF1220C56
:1012B0000EFB117742EA074201FB05F090420AD982
:1012C0001CEB020201F1FF3780F01B81904240F2DB
:1012D000188102396244121AA4B2B2FBFEF00EFB6E
:1012E000102244EA024400FB05F5A5420AD91CEB92
:1012F000040400F1FF3280F00681A54240F2038130
:101300006444023840EA0140641B00211EB1DC4005
:101310000023C6E90043BDE8F0878B4208D9002EC0
:1013200000F0EC800021C6E900050846BDE8F08722
:10133000B3FA83F1002949D1AB4202D3824200F2D1
:10134000F780841A65EB030201201746002EE2D0D5
:10135000C6E90047DFE702B9FFDEB2FA82F3002BED
:1013600040F08F808A1A4FEA1C471FFA8CFE012139
:10137000B2FBF7F507FB1520220C42EA00420EFBF8
:1013800005F0904208D91CEB020205F1FF3802D2A9
:10139000904200F2CA804546121AA4B2B2FBF7F09E
:1013A00007FB102244EA02440EFB00FEA64508D9C2
:1013B0001CEB040400F1FF3202D2A64500F2BA8011
:1013C0001046A4EB0E0440EA05409FE7C1F1200758
:1013D0008B4022FA07FC4CEA030C05FA01F420FAD0
:1013E00007F3FD40234300FA01F94FEA1C401FFABE
:1013F0008CFEB5FBF0F81C0C00FB185544EA0544C4
:1014000008FB0EF5A54202FA01F20BD91CEB04040D
:1014100008F1FF3A80F08780A54240F28480A8F16D
:1014200002086444641B9DB2B4FBF0F300FB134458
:1014300045EA044403FB0EFEA64508D91CEB040450
:1014400003F1FF306BD2A64569D9023B644443EAFD
:101450000840A0FB0283A4EB0E049C42C6461D4636
:1014600055D352D056B1B9EB0E0364EB050404FA20
:1014700007F7CB40CC401F43C6E900740021BDE80C
:10148000F087C3F1200102FA03FC20FA01F225FAE9
:1014900001F19D402A434FEA1C471FFA8CFEB1FB25
:1014A000F7F007FB1015110C41EA054100FB0EF5A2
:1014B0008D4204FA03F408D91CEB010100F1FF3856
:1014C0002FD28D422DD902386144491B92B2B1FB13
:1014D000F7F507FB151142EA014205FB0EF19142B7
:1014E00008D91CEB020205F1FF3816D2914214D93B
:1014F000023D6244521A45EA004139E7314630461E
:1015000009E73946E7E61046FCE6C145AAD2B8EB42
:10151000020E63EB0C050138A4E74546EAE70346F3
:1015200095E74046D1E7D0467CE7023D624433E789
:1015300008460BE76444023843E700BF704700BF2A
:1015400008B51348134B03604FF00043436000237A
:101550008360C3600361042242610376437683762D
:101560000122C26180F820304362836280F82C300F
:101570004FF48052026307224263826380F83C305A
:10158000C36402F069F900B908BD00F025F9FBE772
:10159000C4020020002401400268094B9A4200D096
:1015A000704782B04FF0B0431A6E42F400721A6670
:1015B0001B6E03F400730193019B02B0704700BFE0
:1015C000002401400268054B9A4200D070474FF05A
:1015D000B042136E23F400731366F7E70024014052
:1015E00030B585B004460023019302930393FFF7BF
:1015F000A7FF164802F084FDF8B901940023029376
:10160000039301A9114802F0C7FAC8B90F4802F0C4
:1016100085FCC0B90D4C4FF0FF31204602F05AFA5C
:10162000204602F04DFD204602F0B3FA0546204662
:1016300002F0F0FC284605B030BD00F0CDF8DCE744
:1016400000F0CAF8E2E700F0C7F8E3E7C4020020C0
:10165000014B024A1A607047C40200200024014076
:1016600008B50D48FFF7BCFFA0B103460B4AB2F81E
:10167000AA004FF6FF72904207D040F6E44202FB08
:1016800000F0B0FBF3F080B205E00548B0FBF3F0EA
:1016900080B200E0002008BD002000B40075FF1FEC
:1016A000D8084C0010B582B0FFF7DAFF04461F4897
:1016B000FFF796FF1E4AB2F8C830B2F8A82093424E
:1016C0001AD000FB04F4A4081A49A1FB0414C2EBCD
:1016D0005414642101FB04F49B1A94FBF3F41E34AC
:1016E00024B20094144B01220021104610F08EF811
:1016F000200200B202B010BD04FB00F00F4BA3FBB0
:101700000023C41A03EB5403DB0A4FF47A7202FB82
:1017100003F3A3F53923A3F50C63094A82FB0312F3
:10172000DB17C3EBA2231E331CB2DAE7001000B0B4
:101730000075FF1F9F00EE09FC6E010801011000FB
:10174000AD8BDB6800B583B04FF0B0439A6C42F0CC
:1017500004029A649A6C02F004020192019A9A6C53
:1017600042F001029A649B6C03F001030093009B1A
:10177000002202210F2002F025FD0F2002F05AFD69
:1017800003B05DF804FB000030B587B0002401947D
:1017900002940394049405944FF0B043DA6C42F041
:1017A0000202DA64DB6C03F002030093009B094D34
:1017B00022469021284603F074FA902301930123D6
:1017C00002930394049401A9284603F013F907B087
:1017D00030BD00BF0004004872B6FEE708B51148EE
:1017E000114B036040F614634360002383600122C1
:1017F000C260036143618361C361036203F01EFC45
:1018000050B90021074803F023FE38B900210548EC
:1018100003F04CFE20B908BDFFF7DEFFFFF7DCFF49
:10182000FFF7DAFF28030020005C004000B59BB002
:101830004822002108A811F02CFD002302930393F5
:10184000049305930693079316490A6822F4C0622D
:1018500042F400720A600A6802F4C0620192019ABE
:101860002422089281220B92012210921193B0221D
:101870001292139308A803F0DFFF78B94F23029365
:10188000002303930493059306930793022102A870
:1018900004F00EFB20B91BB05DF804FBFFF79CFFC2
:1018A000FFF79AFF0004005808B501F07BFFFFF72F
:1018B000BDFFFFF769FFFFF791FF01F09FFB00F00D
:1018C000B1FE01F0A1FBFCE700B58DB02C22002198
:1018D00001A811F0DEFC1948194B03601F23836037
:1018E00000230361436183614FF08042C261036260
:1018F0004FF48073436204F01DFEA8B90F4804F052
:1019000053FFA0B900220892029206924FF00053B2
:1019100007934FF480730B9301A9084804F068FE05
:1019200040B90DB05DF804FBFFF756FFE6E7FFF79F
:1019300053FFE7E7FFF750FFF3E700BF7C0300200A
:101940000028004010B590B004463822002102A8BB
:1019500011F09FFC22681A4B9A4201D010B010BDC2
:101960004FF4803302934FF480730F9302A804F076
:10197000D1FB08BB4FF0B043D3F8902042F40042B3
:10198000C3F890209A6D42F480629A659B6D03F4CF
:1019900080630193019B00221146022002F012FC99
:1019A000022002F047FC002211462A2002F00AFC25
:1019B0002A2002F03FFCD1E7FFF70EFFDAE700BF75
:1019C000002800407047704708B501F00DFF012066
:1019D000024BC3F8880003F0F9FD08BD000400586D
:1019E00008B501F008FF08BD08B501F004FF00F0DC
:1019F00061FC08BD08B501F0F7FE0121002003F0ED
:101A000089FD08BD2DE9F04397B0044600211191EE
:101A10001291139114911591382203A811F039FCF9
:101A20002268234B9A4202D017B0BDE8F0834FF4EE
:101A3000807303934FF440130A9303A804F06AFBE6
:101A4000002832D14FF0B044E36C43F00403E36468
:101A5000E36C03F004030293029B022311934FF003
:101A60001209CDF84890012513954FF00008CDF8E4
:101A70005080042715970F4E11A9304602F0BAFF87
:101A80001195CDF848901395CDF85080159711A970
:101A9000304602F0AFFFA36D43F40003A365A36DCE
:101AA00003F400030193019BBEE7FFF795FEC9E72E
:101AB000005C0040000800487047FEE7FEE7FEE7D4
:101AC000FEE770477047704708B501F081FE08BD1A
:101AD00008B5024804F094FE08BD00BF7C03002056
:101AE00008B54FF4005003F0EBF808BD08B5024804
:101AF00002F0BEFD08BD00BFCC03002008B50248BF
:101B000005F038FB08BD00BF2C04002008B50248D2
:101B100004F08AFC08BD00BF7C03002008B5024821
:101B200005F018F908BD00BFB403002008B505484A
:101B30000823036004F09AFE00B908BDFFF74CFECD
:101B4000FBE700BFB403002000B583B04FF0B04303
:101B50005A6E42F001025A665B6E03F00103019374
:101B6000019B00221146322002F02CFB322002F0B1
:101B700061FB03B05DF804FB0CB400B583B004ABAB
:101B800053F8042B019310F023FB03B05DF804EB32
:101B900002B0704730B585B004460D4602A810F07B
:101BA0008BF8BDF90C300093029B054A10212046AA
:101BB000FFF7E2FF2046FEF733FB288005B030BD7B
:101BC000206F010808B54FF0B042936823F400433A
:101BD000936010F0F5F800F0BCF800F0DCF80FF0BE
:101BE000A1FD08480FF0B8FD02200FF0BBFDFFF784
:101BF0002FFD00F0D1F80FF0C5FE012108460FF0CF
:101C0000E1FE08BD951B000808B50FF0F1FE08BD08
:101C100010B582B0FFF724FD40F6B83398420DD8D6
:101C2000B0F5E16F15D3A0F5E160C0EBC010440042
:101C3000094BA3FB0434C4F3C71400E0FE24009452
:101C4000064B0122002102200FF0E0FD204602B0E9
:101C500010BD0024F3E700BFB5814E1B2C6F0108B7
:101C600008B5FFF71FFD0346002802DBC3F30F2072
:101C700008BD00F1FF03F9E738B50446184BD3F867
:101C80008035B3F1FF3F13D0C3711A0A82711A0C69
:101C900042711B0E0371124BD3F88425C270D3F826
:101CA00084351A0A82701A0C42701B0E037038BDFC
:101CB00001F0A8FD054601F0B1FD054401F0A8FDC5
:101CC0002B0EE3712B0CA3712B0A63712571030E8C
:101CD000E370030CA370030A63702070E7E700BF92
:101CE0000070FF1F084BD3F88005B0F1FF3F00D014
:101CF000704710B501F086FD044601F089FD4440AF
:101D000001F08CFD604010BD0070FF1F08B501217F
:101D100002200FF041FE08BD08B5002102200FF09F
:101D20003BFE08BD0020704708B500F0B1F808BDC3
:101D300000B583B00190019800F082F903B05DF81E
:101D400004FB08B501F070FD01F076FD01F07CFDAB
:101D500008BD10B586B00024019402940394049445
:101D60000594032302934FF4C04301934FF0B04313
:101D7000DA6C42F00102DA64DB6C03F001030093D9
:101D8000009B01A94FF0904002F034FE2046FFF77F
:101D9000D8FF06B010BD7047002070470120704783
:101DA00008B511F0C9FA162303604FF0FF3008BDE3
:101DB00008B54FF0FF31FFF7F3FFFEE770B50C46B3
:101DC0001646002506E0AFF30080214601F8010B1E
:101DD00001350C46B542F6DB304670BD70B50C4699
:101DE0001646002504E014F8010BAFF3008001351E
:101DF000B542F8DB304670BD4FF0FF3070474FF40E
:101E000000534B600020704701207047002070474E
:101E100010B503460C4A0D490D48006840B10C4806
:101E200000680344521A934206D8094A136010BD51
:101E30000748084C0460F2E711F07EFA0C230360B7
:101E40004FF0FF30F3E700BF0080002000040000E7
:101E5000C0030020201B0020024B9868C043024BA7
:101E60001860704700280040C8030020014B186824
:101E7000704700BFC8030020034B9B68DB43034A45
:101E80001068181A704700BF00280040C8030020DF
:101E9000044B1B781BB1044B9868C043704700206B
:101EA000704700BFC4030020002800400320704793
:101EB00008B501464FF47A7200238002890DFFF7BE
:101EC00089F908BDC20E43011B1A62F1000292009B
:101ED00042EA93729B001B1842F10000C00040EAE6
:101EE0005370C3F3D51343EA8050704710B5074BC6
:101EF0000122DA65064C4FF48071204604F054FA52
:101F00004FF0FF332363002010BD00BF00280040C6
:101F10007C03002008B502460221024804F085FC3B
:101F200008BD00BF7C03002038B50F4B1B780BB1F8
:101F3000002038BD0D4C4FF0FF352563FFF7C4FC82
:101F4000FFF7D4FF4FF48071204604F02DFA25638B
:101F5000204604F009FC0020FFF7DCFFFFF77CFFC0
:101F6000014B01221A70E3E7C40300207C03002028
:101F700008B502460021024804F057FC08BD00BF26
:101F80007C03002008B502460121024804F04DFC04
:101F900008BD00BF7C03002010B58CB004462C2285
:101FA000002101A811F075F9FFF7A0FF0C4B1B6889
:101FB0001C4400230893E443029406934FF000531B
:101FC00007934FF480730B93012201A9054804F095
:101FD0000FFB10B900200CB010BDFFF7FDFBF9E7B7
:101FE000C80300207C03002008B50221014804F04A
:101FF00023FC08BD7C03002038B50546074B9C68D0
:10200000E443FFF7F1FF2346A40A44EA8054C3F3F4
:102010000900FFF757FF2880204638BD0028004000
:1020200008B50021014804F007FC08BD7C0300202E
:1020300008B50121014804F0FFFB08BD7C03002026
:1020400008B5FFF735FF064B9A68D24300E000BFA2
:10205000034B9B68DB439B1A8342F8D308BD00BF48
:102060000028004008B50FF0CFFF08BD08B5FFF706
:10207000BBFF0130FFF74EFF08BD000008B5174851
:10208000174B03604FF4E133436000238360C36068
:1020900003610C2242618361C36103624362836214
:1020A00005F0C5FE70B900210C4806F072F860B961
:1020B00000210A4806F092F850B9084806F045F8A1
:1020C00048B908BDFFF788FBEDE7FFF785FBEFE7B1
:1020D000FFF782FBF1E7FFF77FFBF2E72C0400201C
:1020E0000038014030B597B004460021119112919B
:1020F000139114911591382203A811F0CAF822689F
:10210000294B9A4201D017B030BD0123039303F548
:102110004033049303A803F0FDFF00283ED14FF0A5
:10212000B0431A6E42F480421A661A6E02F480427C
:102130000292029ADA6C42F00202DA64DB6C03F07B
:1021400002030193019BC0231193022312930025E4
:102150001395032314930723159311A9134802F031
:1021600049FC1348134B0360122343601023836020
:10217000C5608023036145618561C561056202F028
:10218000E9F870B90A4BA3679C620022022124205F
:1021900002F018F8242002F04DF8B4E7FFF71CFB1A
:1021A000BDE7FFF719FBEDE70038014000040048E8
:1021B000CC0300205800024002680B4B9A4200D02A
:1021C000704710B504464FF0B042136E23F48043BD
:1021D0001366C021054802F0DFFCA06F02F02CF965
:1021E000242002F035F810BD0038014000040048FA
:1021F00008B5074B1860FFF7A5FAFFF73FFF054A40
:10220000D2F8803043F00063C2F88030002008BD6F
:10221000C00400200008005808B54FF0B0431A6C05
:1022200042F480421A641A6C22F480421A64044810
:10223000FFF7C2FF0F2002F00BF8002008BD00BF1F
:102240002C04002008B50A460146024804F0C0FEEE
:10225000002008BD2C04002010B582B0124B18607D
:102260004FF40013009302AB13E906000F4805F08A
:1022700014FF0E4B1B68DA6912F4803FF9D1DA695A
:1022800012F4800FFBD09A6842F480029A60074CE7
:10229000204605F043FF01220549204605F08EFE49
:1022A000002002B010BD00BFBC0400202C040020A0
:1022B000C404002008B5074805F0B9FD20B9064858
:1022C00002F048F818B908BDFFF786FAF7E7FFF7FC
:1022D00083FAF8E72C040020CC03002008B5024B59
:1022E0001B680020984708BDC004002010B50446B4
:1022F000074B1B682BB1D0F88C2012B9012105487F
:10230000984701220349204605F058FE10BD00BF42
:10231000BC040020C404002030B58DB04F4C4FF0F9
:10232000FF3502951923019304AB00930123882202
:10233000EC21204602F0B4FF0295072301930DF132
:10234000290300930123E122EC21204602F0A8FF9B
:102350009DF811209DF8103043EA0223404A138073
:102360009DF813209DF8123043EA02233D4A138062
:102370009DF815309DF8142042EA03223A490A805C
:102380009DF8172043EA0223384A13809DF819204C
:102390009DF8163043EA0223354A13809DF81B202E
:1023A0009DF81A3043EA0223324A13809DF81D201B
:1023B0009DF81C3043EA02232F4A13809DF81F200A
:1023C0009DF81E3043EA02232C4A13809DF82120F9
:1023D0009DF8203043EA0223294A13809DF82320E8
:1023E0009DF8223043EA0223264A13809DF82520D7
:1023F0009DF8243043EA0223234A13809DF82720C6
:102400009DF8263043EA0223204A13809DF82820B5
:102410001F4B1A809DF82A209DF8293043EA022399
:102420001C4A13809DF82B201B4B1A809DF82C1002
:102430009DF82D3003F00F0242EA011217490A807D
:102440009DF82E201B0943EA0213154A13809DF8BC
:102450002F20144B1A800DB030BD00BF2803002080
:10246000E4040020E6040020E8040020D204002058
:10247000D4040020D6040020D8040020DA04002070
:10248000DC040020DE040020E0040020E204002040
:10249000C6040020C8040020CA040020CC04002088
:1024A000CE040020D0040020F0B587B007460C46CB
:1024B00016461D46FFF730FF00238DF817308DF8C4
:1024C0001630B6238DF817304FF47A730293012338
:1024D00001930DF117020092E022EC21504802F026
:1024E0000BFE002840F086806420FFF721FC8DF869
:1024F00017604FF47A730293012301930DF11702D1
:102500000092F222EC21464802F0F6FD002874D138
:102510006420FFF70DFC4FF47A73029301230193BB
:102520000DF116020092F222EC213D4802F0B8FEB5
:102530009DF816209DF817309A4261D19DF83430ED
:102540009B009DF8302043EA42138DF817304FF47A
:102550007A730293012301930DF117020092F52281
:10256000EC212F4802F0C8FD00284CD16420FFF771
:10257000DFFB4FF47A730293012301930DF11602EE
:102580000092F522EC21264802F08AFE9DF81620E2
:102590009DF817309A4239D1A40044EA471464B236
:1025A00025438DF817504FF47A730293012301935A
:1025B0000DF117020092F422EC21194802F09CFD63
:1025C00038BB6420FFF7B4FB4FF47A730293012306
:1025D00001930DF116020092F422EC21104802F052
:1025E0005FFE9DF816209DF817309A4214D1002006
:1025F00007B0F0BD4FF0FF30FAE74FF0FF30F7E7DC
:102600004FF0FF30F4E74FF0FF30F1E74FF0FF30CD
:10261000EEE74FF0FF30EBE74FF0FF30E8E700BFA9
:102620002803002000B583B0042301930023009306
:102630000323012205210220FFF736FF03B05DF8D6
:1026400004FB000010B586B04FF47A7302930123A7
:1026500001931F4C0094D022EC211E4802F020FE72
:102660002378602B31D14FF0FF330293082301937D
:1026700004AB00930123F722EC21164802F010FE70
:102680009DF810209DF811301B0143EA02339DF89C
:10269000122043EA1213104A13609DF813209DF88C
:1026A00014301B0143EA02339DF8152043EA12134C
:1026B0000A4A13609DF816209DF8173043EA02235A
:1026C000074A1360002006B010BD4FF0FF30FAE754
:1026D000C504002028030020F0040020F40400209A
:1026E000EC0400200E4B1B885A00C2EBE0020D499F
:1026F000B1F9001001FB02F2C3EB201000FB00F067
:102700000013094BB3F9003003FB00F0801300EB1A
:10271000E220064B186000EB80008030001270470A
:10272000E4040020E6040020E8040020F80400206F
:10273000F8B5664B1968CB17B1F5FA3143F1FF33A1
:1027400001FB03F4A1FB012606EB4406604CB4F93F
:102750000050EC1702FB04F405FB0644A2FB0575D0
:102760002C445C4DB5F900C04FEAEC750CFB03FE40
:1027700001FB05EEACFB01C5AE444FEA4E4E4EEAFE
:10278000DC3E4FEA4C4C1CEB070C44EB0E04524D64
:10279000B5F9005004EBC504504DB5F900E04FEA1F
:1027A000EE7502FB05F50EFB0655A2FB0E2E7544D9
:1027B000120A42EA05624A4EB6F900E04FEAEE76A6
:1027C0000EFB03F301FB0633AEFB01E10B441B03DD
:1027D00043EA1E534FEA0E3E12EB0E0243EB252353
:1027E00003F500433F490D88A2FB052105FB0311BA
:1027F0004A10CB1753EA610165D0C0F5801E4FEA3D
:102800006E014FEACE7EBEEB0C0E61EB04041EEBB4
:102810000E0C44EB04011CEB0E0C44EB010188018F
:1028200040EA9C604FEA8C151CEB050C41EB000163
:10283000890041EA9C714FEA8C0C1CEB0E0C44EBB6
:102840000101890041EA9C714FEA8C0010EB0E00F7
:1028500044EB0101FEF76EFC0346234AB2F9005037
:10286000EF17420B42EAC1424E1305FB06F402FB8E
:102870000744A5FB02573C4402FB04F405FB064455
:10288000A2FB05252C44520E42EAC412174DB5F99D
:102890000050EF1705FB01F607FB0060A5FB035690
:1028A0003044ED0C45EA40359B1841EB64615B19FF
:1028B00041EBE041180A40EA01600D4BB3F90030EA
:1028C00000EB0310F8BD0020FCE700BFF804002077
:1028D000DC040020DA040020D8040020D604002004
:1028E000D4040020D2040020E2040020E0040020F0
:1028F000DE040020204B1968A1F596311F4BB3F977
:1029000000301B05C3EB80301D4BB3F9003001FBD9
:10291000130000F58040C0131A4BB3F9003001FBDF
:1029200003F39B12184A128801FB02F2D21202F53D
:10293000004202FB03F39B1203F50013134AB2F9A2
:10294000002002FB03F303F500539B1303FB00F08D
:10295000C31303FB03F3DB110D4A128802FB03F3DD
:10296000A0EB231020EAE070B0F1C85FA8BF4FF0E1
:10297000C8500013704700BFF8040020CC040020AA
:10298000CE040020D0040020CA040020C804002087
:10299000C604002008B5FFF755FE002838D1214BAA
:1029A0001868B0F5000F21D11F4B00221A601F4B91
:1029B0001868B0F5000F23D0FFF7BAFEFEF7F2F962
:1029C0004FF06E51FEF746FA194B1860194B186814
:1029D000B0F5004F18D0FFF78DFFFEF7E3F94FF089
:1029E0006A51FEF737FA144B186018E0FFF77AFEC9
:1029F000FEF7DCF91149FEF7E1FA0B4B1860D6E758
:102A00000B4B00221A60E1E70B4B00221A6006E034
:102A10000023094A1360064A1360034A136000202A
:102A200008BD00BFF404002038050020F004002099
:102A300030050020EC040020280500200000C842DA
:102A400082B000230193019302E0019B01330193C3
:102A5000019BB3EB800FF8D302B0704700B587B08D
:102A6000002301930293039304930593019101239F
:102A7000029301A901F0BEFF07B05DF804FB00B5A9
:102A800087B000230193029303930493059301916C
:102A90000123039301A901F0ADFF07B05DF804FB2A
:102AA00010B50D4C10212046FFF7D8FF0022102151
:102AB000204602F0F6F844F25060FFF7C1FF012211
:102AC0001021204602F0EDF81420FFF7B9FF102185
:102AD0002046FFF7D4FF10BD0004004810B52820A1
:102AE000FFF7AEFF10210C4802F0D4F840B10024EB
:102AF0001021094802F0CEF80028F9D1204610BD77
:102B00005020FFF79DFF1021034802F0C3F808B1E1
:102B10000124EDE7FF24EBE70004004838B500246A
:102B200025460DE0C4F10702012393402B43DDB29B
:102B30001021114802F0AEF80028F9D10134E4B2B6
:102B4000072C16D810210C4802F0A4F80028F9D060
:102B50002820FFF775FF1021074802F09BF8002896
:102B6000E0D1C4F1070201239340DB435BB21D4077
:102B7000DEE7284638BD00BF0004004810B5114C00
:102B800080212046FFF76AFF00228021204602F0C4
:102B900088F84FF4F070FFF753FF80212046FFF7CD
:102BA0006EFF5020FFF74CFF8021204602F072F8A4
:102BB00030B901244FF4C870FFF742FF204610BD22
:102BC000FF24F7E70004004870B5064680211A4844
:102BD000FFF744FF002411E0174D80212846FFF73E
:102BE0003DFF00228021284602F05BF83220FFF7EB
:102BF00027FF80212846FFF742FF0134072C19DC0C
:102C000046FA04F313F0010FE6D00B4D802128465D
:102C1000FFF724FF00228021284602F042F801201D
:102C2000FFF70EFF80212846FFF729FF3220FFF72C
:102C300007FFE2E770BD00BF0004004870B58021C7
:102C40001448FFF71CFF00252E4603E03C20FFF749
:102C5000F7FE0135072D1BDC0E4C80212046FFF7C7
:102C6000FDFE00228021204602F01BF80220FFF723
:102C7000E7FE80212046FFF702FF8021204602F078
:102C800009F80028E2D00123AB401E43F6B2DDE78D
:102C9000304670BD0004004830B583B0FFF76EFFCA
:102CA000254C20700120FFF743F8CC20FFF78CFF64
:102CB0004420FFF789FF4FF44870FFF739F8FFF71A
:102CC0005DFF20700120FFF733F8CC20FFF77CFF79
:102CD000BE20FFF779FFFFF7B1FF184C2070FFF718
:102CE000ADFF174B1870237843EA0020FDF7F2FB85
:102CF0000022144BFDF758FCFDF74EFF0446124B23
:102D000018601249FEF7A6F8FEF7F4F985B22046DE
:102D1000FDF7F2FB02460B460D4C0E49204610F023
:102D200055FA00940C4B0122002102200EF06EFD9A
:102D3000284603B030BD00BFFC040020FD04002085
:102D4000FE0400200000B03F0C0500200000C84237
:102D500000050020886F0108906F010830B585B02C
:102D600004460025019502950395FEF7E9FB2148ED
:102D700001F0C6F998B9019400230293039301A9C5
:102D80001C4800F009FF68B91A4801F0C7F860B99B
:102D90004FF0FF31174800F09DFE00240EE0FEF7D3
:102DA0001BFDE8E7FEF718FDEEE7FEF715FDEFE780
:102DB000104800F0EEFE284485B20134632CF7DDA4
:102DC0000D4BA3FB0530C0F34F10FDF7EBFF0B4994
:102DD000FEF7F4F80A49FEF73DF80A49FDF732FF1D
:102DE000FEF788F984B2034801F06AF9204605B07D
:102DF00030BD00BFC40200201F85EB5100F07F45AD
:102E0000009017460000964308B50120FFF7A6FF83
:102E100000B208BDF0B589B00446402968D00BD88F
:102E2000102919D0202961D14FF6FF734380838088
:102E3000FFF732FF208059E0802957D10024574BFB
:102E40001C80FFF7E1FF80B20090554B22462146DF
:102E500001200EF0DBFC49E0FFF79CFD514F524989
:102E60003868FDF7F7FFFEF745F920804F4D4E49D2
:102E70002868FDF7EFFFFEF73DF960804C4E4D49A5
:102E80003068FEF79BF84849FDF7E4FFFEF732F99A
:102E9000A08002AC3868FDF72FFB234607220FF015
:102EA0005BFA0094444B0122002110460EF0AEFC68
:102EB00004AC3068FDF720FB234607220FF04CFAE4
:102EC00000943E4B0122002110460EF09FFC06AC00
:102ED0002868FDF711FB234607220FF03DFA009406
:102EE000374B0122002110460EF090FC09B0F0BDD6
:102EF000FFF7D6FDFFF7F2FD324B1870FFF70EFE1D
:102F0000314D2870FFF70AFE304B1870FFF706FEB0
:102F10002F4E3070FFF702FE2E4B1870FFF7FEFDAC
:102F20002D4B188030782D4B18802E782C4B1E801E
:102F3000FDF738FF2B4D28603046FDF733FF2A4E52
:102F400030602A4FFDF7D8FA3B4607220FF004FA0B
:102F50000097274B0122002102200EF057FC254F3D
:102F60002868FDF7C9FA3B4607220FF0F5F90097EC
:102F7000214B0122002102200EF048FC0A4928685A
:102F8000FDF768FFFEF7B6F8208007493068FDF7C7
:102F900061FFFEF7AFF86080A8E700BF4E00002099
:102FA00034700108380500200000C84228050020C0
:102FB0003005002000007A44AC6F0108C86F01089A
:102FC000E46F01082C0500201C0500201D050020D1
:102FD0001E0500201F0500203405002016050020D6
:102FE00014050020180500201005002020050020F1
:102FF000007001083C0500201870010808B5FEF7B4
:10300000E1FD00F097F908BD08B54FF0FF300EF074
:103010005BFD08BD7047704700283CD010B584B0F8
:10302000044603780BB904B010BD1B480EF08CFFAA
:103030001A4B0022114602200EF0E8FB237B94F984
:10304000042094F91410039102920193A368009351
:10305000134B0022114603200EF0D8FB114B002227
:10306000114603200EF0D2FBA378012B0CD1E3789C
:1030700043B10D4B00930D4B0022114603200EF07F
:10308000C5FBD0E70A4BF5E70A4B002211460320A7
:103090000EF0BCFBC7E770476C0600205C700108AF
:1030A00090700108C470010850700108D4700108C4
:1030B00054700108E870010808B5002102200EF0E4
:1030C000CFFC02480EF040FF08BD00BF8406002080
:1030D00008B5002101200EF0C3FC08BD40B310B5B7
:1030E000044690F90130E3B912480EF0D3FE0020F7
:1030F00000F0CCFA104B0022114602200EF086FBA5
:10310000A378012B06D00D4B0022114602200EF0B1
:103110007DFB0CE00A4B0022114602200EF076FBEC
:1031200005E0084B0022114602200EF06FFB10BD97
:10313000704700BF38060020F870010830710108A0
:10314000107101085071010808B5002000F0A8FABC
:1031500008BD000030B585B004460D4601F026FBE1
:103160000223019304F17843DB0A029301230393C2
:10317000694601A801F0FEFB18B101F02FFB05B074
:1031800030BD2A4600232146012001F06BFB0028B8
:10319000F3D101224FF40051014801F082FDECE728
:1031A000000400480078704770B586B00C460546AC
:1031B000002863D0504E4FF4FA6130460EF00AFFFB
:1031C00030460EF0C1FE4D4B0022114602200EF09B
:1031D0001DFB94F90C202B7894F9021094F903004C
:1031E00094F904600596049003910293444B53F8BC
:1031F00022300193A3680093424B00221146022023
:103200000EF004FB6B6819783F4B1970102905D03C
:10321000402903D0202901D0802902D13B48FFF763
:1032200099FF3A48FFF7BEFF394B18700090394BB1
:103230000022114602200EF0E9FA2B78022B42D030
:10324000032B57D16B78012B54D16B681B78012B62
:1032500017D0022B26D0002B4CD12F4B0022114629
:1032600002200EF0D3FA00212C48FFF773FF002054
:1032700005F088F92A4B00225A703BE0002999D1C9
:1032800038E0284B0022114602200EF0BFFA01213F
:103290002248FFF75FFF012005F074F9204B01225F
:1032A0005A7027E0204B0022114602200EF0AEFAA1
:1032B00002211A48FFF74EFF022005F063F9184B70
:1032C00002225A7016E00093184B00221146022089
:1032D0000EF09CFA00240AE06B681B5D01930094D9
:1032E000134B0022114602200EF090FA01346B7845
:1032F000A342F1DC06B070BD540600206C710108D9
:1033000054730108A07101089C06002000F803080E
:103310009D060020E8710108FC71010800F0030817
:103320003C000020147201082C720108447201084C
:10333000547201082DE9F04385B0002000F07EF9B9
:10334000002402940125019500953E4B224621461A
:1033500002200EF05BFA02940323019302260096EA
:10336000394B2246214630460EF050FA0294019520
:103370000095364B2246214630460EF047FADFF8DC
:10338000D0900094334B22464FF0FF3148460EF068
:1033900023FDDFF8C4800094304B22464FF0FF310C
:1033A00040460EF019FD2E4F00942E4B2A464FF04A
:1033B000FF3138460EF010FD4FF4FA7148460EF01A
:1033C00009FE4FF4FA7140460EF004FE4FF4FA7114
:1033D00038460EF0FFFD244A214628460EF0FCFB3D
:1033E000224A214630460EF0F7FB00F0D7F820487D
:1033F00005F02EFB1F48FFF7D5FE1F4B1870B0429B
:1034000003D0FF2801D01D4B58701C4804F0C2FFA8
:1034100013480EF099FD022005F016F9184C002211
:103420000092184B4FF0FF3120460EF0D5FC42F2CF
:10343000107120460EF0CEFD20460EF085FD05B041
:10344000BDE8F0837072010890720108B072010843
:103450006C060020153000085406002017300008C4
:10346000380600204931000851850008B1340008B1
:103470000800002000F00308500600203C00002057
:1034800084060020B9300008B0F5005F00D0704716
:1034900008B5002102200EF0E3FA08BD034B58786E
:1034A00010B1012800D00228704700BF3C00002066
:1034B00010B586B0002403942F4B197804A8FFF7A9
:1034C000A9FCFFF7EBFF00902C4B2246214602207F
:1034D0000EF09CF92A4B02221A705A682949098871
:1034E0001170586828490A88120A42705A68097887
:1034F0009170BDF810205968100AC87059680A7197
:10350000BDF812205968100A487159688A71BDF8CF
:1035100014205968100AC8715B681A721B4A127825
:10352000082A02D0012A00D08AB900225A729A725F
:10353000DA721A730D2312484370002303AA194646
:1035400005F0CCF828B1039B53B906B010BD092390
:10355000F1E70F4B0122002110460EF057F9F4E776
:103560000C4AA2FB03239B0900930B4B0122002171
:1035700010460EF04BF9E8E79D060020D0720108D6
:10358000000000204E0000204C0000203C000020E5
:10359000E8720108D34D6210F8720108054B002251
:1035A0001A605A609A60DA6080225A6003221A60B8
:1035B000704700BFA006002000487047A00600200A
:1035C00008B500F077F808BD08B500F0A7F808BD09
:1035D00008B500F0DFF808BD08B500F0DDF808BD5B
:1035E00008B500F0DBF808BD0D48854600F0D8F8B6
:1035F0000C480D490D4A002302E0D458C45004334E
:10360000C4188C42F9D30A4A0A4C002301E0136023
:103610000432A242FBD30FF095FEFEF745F9FEE718
:103620000080002000000020A80200200081010886
:10363000A8020020201B0020FEE70000F0B587B0A4
:103640000024019402940394049405944FF0B04331
:10365000DA6C42F00202DA64DB6C03F002030093DE
:10366000009B202601960127029702230493064D12
:1036700001A9284601F0BEF93A463146284601F034
:1036800010FB204607B0F0BD0004004808B5012239
:103690002021024801F005FB002008BD000400487D
:1036A00008B52021024801F001FB002008BD00BF41
:1036B0000004004870B586B000240194029403947D
:1036C000049405944FF0B043DA6C42F00102DA64DE
:1036D000DB6C03F001030093009B1025019501238F
:1036E00002930323049301A94FF0904001F082F963
:1036F0002026019601A94FF0904001F07BF9224667
:1037000031464FF0904001F0CCFA224629464FF066
:10371000904001F0C6FA204606B070BD08B50328F7
:103720000FD8DFE800F002101D2A002210214FF010
:10373000904001F0B6FA002220214FF0904001F0B5
:10374000B0FA002008BD012210214FF0904001F096
:10375000A8FA002220214FF0904001F0A2FAF0E7F1
:10376000012210214FF0904001F09BFA012220210C
:103770004FF0904001F095FAE3E7002210214FF05E
:10378000904001F08EFA012220214FF0904001F08C
:1037900088FAD6E702207047012070470120704761
:1037A0007047704710B5032000F0FAFC02F034F8BF
:1037B000064B18600F20FEF7B5FA10B10124204621
:1037C00010BD0446FFF7EDFFF9E700BF50000020F1
:1037D000034B1B78034A11680B441360704700BF0A
:1037E00054000020B00600204FF0E022136923F0BF
:1037F0000203136170474FF0E022136943F00203A4
:1038000013617047014BD3F8900570470070FF1F9C
:10381000014BD3F8940570470070FF1F014BD3F89C
:10382000980570470070FF1F024A536823F0010398
:1038300053607047002004E0024A536823F00203FB
:1038400053607047002004E0024A536823F00403E9
:1038500053607047002004E070B582B000230193EC
:10386000002800F028810446836DBBB1226893686C
:1038700013F0805F1FD1936823F0104323F01703E8
:1038800043F0805393608D4B1B689B098C4AA2FBCD
:1038900003239B0901335B00019309E0FDF77CFEE4
:1038A0000023E36584F85430E0E7019B013B01937A
:1038B000019B002BF9D12268936813F0805F4BD1F4
:1038C000A36D43F01003A365E36D43F00103E365CB
:1038D0000120936813F0040300D00123A16D11F0BF
:1038E000100F40F0E180002B40F0DE80A16D21F44C
:1038F000817141F00201A165916811F0010F38D189
:10390000D16821F01801A5682943D160626802F0EE
:103910004042E16C42EA010C94F83C1001291DD0B0
:1039200021680D69674A2A4042EA0C020A6162680E
:10393000B2F1404F1ED0B2F1804F1BD0B2F1004F18
:1039400018D0614DD5F8081721F4701102F47012E7
:103950000A43C5F808270DE00020BAE7216C0A43A6
:10396000616C0A43A16C0A434CEA020242F0010C6A
:10397000D6E79C46217E627ED20342EA8132A57E52
:1039800042EA4532216B09B14FF480510A43E168A4
:103990000A432169002949DB4FF400110A4394F8D6
:1039A0002C1042EA410294F82010012941D0616AAA
:1039B00021B101F4E071A56A29430A432568E96849
:1039C00021F4FE3121F4F3711143E96025682E6979
:1039D0003E49314041EA0C0129612668616B7569F5
:1039E00025F0070C41EA0C0171612568A66B696935
:1039F00021F0700141EA06116961216931BB21683A
:103A00008B6A63F00F038B622368D968304B0B40DD
:103A1000934240D0A36D23F0120343F01003A3653B
:103A2000E36D43F00103E365012042E021F0004132
:103A3000B4E715B942F48032B9E7A16D41F0200135
:103A4000A165E16D41F00101E165B0E7B1F5001F4D
:103A5000DAD1072B08D8216E9D00E94001F00F0153
:103A60000F2901D00133F4E7012B0ED02568AB6A92
:103A7000E369013B9B0003F01C036FF00F0101FAA7
:103A800003F3216E0B43AB62BEE721688B6A63F0E0
:103A90000F038B62B8E70023E365A36D23F00303F4
:103AA00043F00103A36504E0A36D43F01003A36595
:103AB000012002B070BD0120FBE700BF50000020D4
:103AC000632D3E0502FCFF1F0020014002FCFFDFCA
:103AD000E7FF3F83F8B504460D464669082E05D03A
:103AE0000368DB6813F0010F1ED10426FEF71CF9F2
:103AF000074623681A6832421CD1B5F1FF3FF8D05F
:103B0000FEF712F9C31BAB4201D8002DF1D1236897
:103B10001B683342EDD1A36D43F00403A36500237A
:103B200084F85430032028E0836D43F0200383653C
:103B3000012022E0A26D42F40072A265DA6812F45C
:103B4000406F15D1A27E9AB91A6812F0080F0FD0F3
:103B50009A6812F0040F11D15A6822F00C025A60D0
:103B6000A36D23F4807323F0010343F00103A365E5
:103B7000207E60B923680C221A60F8BDA36D43F063
:103B80002003A365E36D43F00103E365F0E7002044
:103B9000F3E70368186C704770B483B00022019299
:103BA000046990F85420012A00F0038103460122A1
:103BB00080F854200268906810F0040F0AD09A6DC3
:103BC00042F020029A650120002283F8542003B0BD
:103BD00070BC70474868022800F09C80B4F1004F28
:103BE00027D0754DAC4224D01C6E00F01F000F256D
:103BF000854024EA05050C68C4F31106002E31D176
:103C0000C4F3846484402C431C664C68A0080130D3
:103C1000DD69A84213D80D68906A04F01F040F26CE
:103C2000A64020EA0600C5F38365A54028439062BC
:103C300005E00C68906AC4F31104204390621C688C
:103C40000D688A68606920EA052002EA052222F0F0
:103C50007C4222F0FF02024362610A68002A09DB0B
:103C60000020B1E794FAA4F414B1B4FA84F4C9E7DB
:103C70002024C7E75149D1F8080700F0E071504C03
:103C8000A24207D04F4CA24226D04F4CA24232D083
:103C9000002099E710F4000FF4D141F400014748E7
:103CA000D0F8082722F0E0721143C0F80817474AFD
:103CB000126892094649A1FB02129209013202EBF5
:103CC00042029200019202E0019A013A0192019AA5
:103CD000002AF9D1002077E710F0807FD5D141F09C
:103CE00080713648D0F8082722F0E0721143C0F8FE
:103CF0000817002068E710F4800F58D141F48002C3
:103D00002E48D0F8081721F0E0710A43C0F80827C0
:103D1000002059E7B4F1004F02D02748844206D171
:103D20000C68906AC4F3110420EA040090620A68E7
:103D3000002A01DB002047E72049D1F80817204876
:103D4000824207D01F48824213D01F4882421FD0B0
:103D5000002039E701F0A07100F1104000F5883033
:103D6000D0F8082722F0E0721143C0F808170020AD
:103D70002AE701F4400200F1084000F56040D0F865
:103D8000081721F0E0710A43C0F8082700201BE75C
:103D900001F0C07200F10C4000F58030D0F8081737
:103DA00021F0E0710A43C0F8082700200CE700204A
:103DB0000AE702200BE700BF04000080002001405A
:103DC000001000B0004000B8002000B450000020F7
:103DD000632D3E0538B503689A6812F0040F2AD0A7
:103DE00004469A6812F0020F07D19A6822F0004246
:103DF00022F0170242F010029A60FDF795FF054687
:103E000023689B6813F0040F13D0FDF78DFF431B4D
:103E1000022BF5D923689B6813F0040FF0D0A36D33
:103E200043F01003A365E36D43F00103E365012054
:103E300002E0002000E0002038BD000030B583B073
:103E40000023019303689A6812F0010F5BD10446C6
:103E500099682E4A114217D19A6822F0004222F046
:103E6000170242F001029A60294BD3F8083713F485
:103E7000000F19D0274B1B689B09274AA2FB03237D
:103E80009B09013301930CE0836D43F010038365BC
:103E9000C36D43F00103C365012035E0019B013B85
:103EA0000193019B002BF9D1637E012B01D10020EE
:103EB0002AE0FDF739FF054623681A6812F0010F62
:103EC0001FD19A6812F0010F07D19A6822F00042C0
:103ED00022F0170242F001029A60FDF725FF401B15
:103EE0000228E9D923681B6813F0010FE4D1A36D00
:103EF00043F01003A365E36D43F00103E365012084
:103F000002E0002000E0002003B030BD1700008078
:103F10000020014050000020632D3E0503689B688F
:103F200013F0040F28D110B5044690F85430012B3B
:103F300024D0012380F85430FFF780FFC0B9A36D6F
:103F400023F4706323F0010343F48073A36500231B
:103F5000E36522681C21116084F85430226893685C
:103F600023F0004323F0170343F00403936010BDD4
:103F7000002384F85430FAE7022070470220F6E765
:103F800038B504460268936813F0020300D0012399
:103F9000916811F0010F39D0002B39D1936803F0EB
:103FA0000503012B09D0A36D43F01003A365E36D56
:103FB00043F00103E365012029E0936823F0004307
:103FC00023F0170343F002039360236803221A606F
:103FD000FDF7AAFE054623689B6813F0010F13D076
:103FE000FDF7A2FE401B0228F5D923689B6813F059
:103FF000010FF0D0A36D43F01003A365E36D43F010
:104000000103E365012002E0002000E0002038BD4C
:104010000020FCE770B500284CD00446836D43F0C7
:1040200002038365FFF7D6FE0646002833D02268D8
:10403000536823F4677323F003035360236840F24B
:104040009F321A602268D1681B4B0B40D3602268F4
:10405000136923F0404313612268536923F0070377
:1040600053612268136A03F0F023136223689A6A8B
:1040700000259D62114AD2F8083723F0FE73C2F87A
:1040800008372046FDF79EFA2566E565A56584F8A4
:104090005450304670BD2046FFF772FF064608B9FF
:1040A0000123A3652268936823F0104323F01703CC
:1040B0009360BCE70126ECE700023E83002001404C
:1040C00090F85430012B19D010B50446012380F824
:1040D0005430FFF77FFE18B1002384F8543010BD30
:1040E0002046FFF74DFF0028F6D1A36D23F480731F
:1040F00023F0010343F00103A365EDE702207047BD
:1041000010B582B00023019390F85430012B45D0B4
:104110000446012380F85430FFF732FF23689A6881
:1041200012F0010F08D0A36D43F01003A365002324
:1041300084F8543002B010BDA26D22F4817242F0B6
:104140000202A265D96801F00301DA6822F00302D5
:10415000DA602268936843F00043936023689A68AA
:10416000002A09DBDA680A43DA60A36D23F003034F
:1041700043F00103A365DAE7019B01330193019B3F
:10418000B3F52E3FEAD3A36D23F0120343F01003DF
:10419000A365002384F854300120CBE70220C9E74F
:1041A000074AD36823F4E0631B041B0C000200F4ED
:1041B000E060034343F0BF6343F40033D3607047D0
:1041C00000ED00E000B5194BDB68C3F30223C3F137
:1041D000070CBCF1040F28BF4FF0040C03F1040ED0
:1041E000BEF1060F18D9033B4FF0FF3E0EFA0CFC50
:1041F00021EA0C0199400EFA03FE22EA0E020A435C
:1042000000280BDB1201D2B200F1604000F56140E2
:1042100080F800235DF804FB0023E5E700F00F00C1
:104220001201D2B2024B1A54F4E700BF00ED00E0D5
:1042300014ED00E0002807DB00F01F024009012315
:104240009340024A42F82030704700BF00E100E08E
:1042500000280CDB00F01F024009012393402030AE
:10426000034A42F82030BFF34F8FBFF36F8F704780
:1042700000E100E010B4C46CD0F850C0C4F804C031
:10428000446D24B1846DD0F85CC0C4F804C0446CA3
:1042900004F01C0C012404FA0CF4D0F840C0CCF853
:1042A0000440046863608368102B05D0036899603C
:1042B0000368DA6010BC704703689A600368D960CD
:1042C000F8E700000368144A934216D8426C22F0C3
:1042D000030202F1804202F502328264DBB2083B43
:1042E0000E4AA2FB03231B090D4AC26403F01F03FD
:1042F000012202FA03F303657047426C22F00301C6
:10430000084A0A448264DBB2083B044AA2FB032346
:104310001B090733E8E700BF07040240CDCCCCCC33
:10432000800802401C080240436803F07F03074AEC
:104330001A4492004265064A8265013B03F003037A
:10434000012202FA03F3C365704700BF3F820010E9
:1043500040090240002860D010B504460268304B86
:104360009A4242D82F4B13442F49A1FB03131B0938
:104370009B0043642D4B0364022384F825301368AB
:1043800023F4FF4323F07003136021680A68A368D5
:10439000E06803432069034360690343A069034362
:1043A000E0690343206A034313430B602046FFF791
:1043B00089FFA368B3F5804F22D06368A26C03F035
:1043C0007F031360E36C226D5A606368013B032B2B
:1043D00019D900236365A365E3650020E063012329
:1043E00084F8253084F8240010BD114B13440E4985
:1043F000A1FB03131B099B0043640E4B0364BBE743
:1044000000236360D9E72046FFF78EFF636D00222B
:104410001A60A36DE26D5A60DFE70120704700BFAC
:1044200007040240F8FFFDBFCDCCCCCC0000024019
:10443000F8FBFDBF0004024000284BD038B504460D
:104440000268136823F0010313600268224B9A424A
:104450002CD8224B13442249A1FB03131B099B00B8
:104460004364204B036400251560636C03F01C0259
:10447000216C012393404B602046FFF723FFA36C80
:104480001D60E36C226D5A606368013B032B18D9F1
:1044900000206065A065E065E06220636063A06362
:1044A000E06384F8250084F8240038BD0E4B1344E3
:1044B0000B49A1FB03131B099B0043640B4B0364D3
:1044C000D1E72046FFF730FF636D1D60A36DE26DFD
:1044D0005A60DDE70120704707040240F8FFFDBF86
:1044E000CDCCCCCC00000240F8FBFDBF0004024064
:1044F00038B5044690F82400012843D0012084F800
:10450000240094F82500C0B2012806D08023E3637C
:10451000002384F82430012038BD022084F82500CF
:104520000020E0632568286820F00100286020460C
:10453000FFF7A0FE236BD3B12268136843F00E038C
:104540001360A36C1A6812F4803F03D01A6842F417
:1045500080721A60636D1BB11A6842F480721A602F
:104560002268136843F0010313600020D4E7226837
:10457000136823F0040313602268136843F00A03EE
:104580001360DEE70220C7E70346002834D090F826
:104590002520D2B2022A06D00422C263002280F86B
:1045A00024200120704701680A6822F00E020A6088
:1045B000816C0A6822F480720A6001680A6822F03D
:1045C00001020A60426C02F01C01006C01228A4068
:1045D0004260DA6C196D51605A6D32B1116821F484
:1045E000807111609A6DD96D5160012283F8252088
:1045F000002083F8240070470120704708B590F828
:104600002530DBB2022B03D00423C363012008BD95
:104610000268136823F00E0313600268136823F026
:1046200001031360826C136823F480731360436C7E
:1046300003F01C02016C012393404B60C36C026DBC
:104640005A60436D33B11A6822F480721A60836D28
:10465000C26D5A60012380F82530002380F8243091
:10466000836B13B198470020D1E70020CFE700000B
:1046700038B5036C196804682568436C03F01C03A3
:1046800004229A400A4215D015F0040F12D0236874
:1046900013F0200F03D1236823F004032360436C3D
:1046A00003F01C02016C042393404B60036B03B1C5
:1046B000984738BD02229A400A4228D015F0020FCE
:1046C00025D0236813F0200F06D1236823F00A03B6
:1046D0002360012380F8253002681C4B9A420ED9D2
:1046E000436C03F01C0202239340194A53600023D9
:1046F00080F82430C36A002BDBD09847D9E7436C9D
:1047000003F01C0202239340124A5360EFE7082291
:1047100002FA03F30B42CCD015F0080FC9D023687E
:1047200023F00E032360436C03F01C03016C012291
:1047300002FA03F34B60C26380F82520002380F85F
:104740002430436B002BB4D09847B2E7800002407E
:10475000000402400000024010B4054C616941F0C1
:10476000010161610260BFF36F8F436010BC70474D
:10477000004000580C4A536943F480235361EFF31F
:10478000108C72B6402351F8042B40F8042B013BE7
:1047900013F0FF03F7D1044B1B6913F4803FFAD1E8
:1047A0008CF31088704700BF00400058094B5B69CC
:1047B000002B01DB00207047064B074A9A6002F18C
:1047C00088329A605B69002B01DB00207047012072
:1047D000704700BF0040005823016745054B5A69E8
:1047E00042F000425A615B69002B01DB01207047F7
:1047F000002070470040005838B50546FDF794FA90
:104800000446164B1B6913F4803F06D0FDF78CFA63
:10481000001BA842F5D3032038BD104B1B6913F0D1
:10482000010F02D00D4A012111614CF2FA321340FE
:1048300001D00A4A13615BB9084B1B6913F4802F3E
:104840000AD0FDF771FA001BA842F5D30320E3E775
:10485000034A53600120DFE70020DDE700400058F5
:10486000B4060020F8B51F46154B1B78012B25D048
:1048700004460D461646124B01221A7000225A6059
:104880004FF47A70FFF7B8FF70B9012C10D03146A1
:104890002846FFF76FFF4FF47A70FFF7ADFF094A24
:1048A000536923EA04035361054B00221A70F8BDD3
:1048B00032463B462846FFF74FFFECE70220F6E77B
:1048C000B406002000400058034A536943F4803383
:1048D00043F004035361704700400058184B1B68B5
:1048E00003F40073012B06D0154B1B6803F480639F
:1048F000012B12D07047124B1A6822F400721A6012
:104900001A6842F400621A601A6822F400621A609F
:104910001A6842F400721A60E6E7094B1A6822F43A
:1049200080621A601A6842F480521A601A6822F48F
:1049300080521A601A6842F480621A60DAE700BF97
:1049400000400058034A536923F47E7323F00203A6
:104950005361704700400058054A536923F47E7341
:1049600043EAC00040F4803040F0020050617047DC
:1049700000400058F8B51E4B1B78012B35D005467A
:104980000F461B4B01221A7000225A604FF47A70B6
:10499000FFF732FF064618BB2B68042B13D04FF0ED
:1049A000FF333B606C686B68AA681344A34213D959
:1049B0002046FFF7D1FF4FF47A70FFF71DFF064640
:1049C00048B90134EFE7FFF77FFF4FF47A70FFF744
:1049D00013FF064602E03C60FFF7B4FFFFF77EFFDF
:1049E000034B00221A703046F8BD0226FBE700BFD9
:1049F000B406002070B5002369E085685E000324DA
:104A0000B44025EA0405CC68B4402C438460456872
:104A100025EA0C054C68C4F300149C402C43446008
:104A200066E0DD08083550F8254003F0070C4FEA32
:104A30008C0C4FF00F0E0EFA0CFE24EA0E0E0C69D1
:104A400004FA0CF444EA0E0440F8254067E002241E
:104A500000E0002404FA0EF42C430CF1020C4B4D40
:104A600045F82C404A4CD4F88050D44325EA02063D
:104A7000D1F804C01CF4803F01D042EA0506444D41
:104A8000C5F88060D5F8845004EA0506D1F804C062
:104A90001CF4003F01D042EA05063D4DC5F8846094
:104AA0002D6804EA0506D1F804C01CF4801F01D06B
:104AB00042EA0506364D2E606D682C404E6816F4AD
:104AC000001F01D042EA0504314A546001330A68EC
:104AD00032FA03F458D04FF0010C0CFA03FC1CEA34
:104AE0000202F3D04C6804F00304013C012C84D989
:104AF0004C6804F00304032C0CD0C4685D004FF034
:104B0000030C0CFA05FC24EA0C0C8C68AC4044EA5B
:104B10000C04C4604C6804F00304022C81D00468C7
:104B20004FEA430E4FF0030C0CFA0EFC24EA0C0C77
:104B30004C6804F0030404FA0EF444EA0C04046024
:104B40004C6814F4403FC1D04FEA930C0CF10205BD
:104B50000E4C54F8255003F0030E4FEA8E0E072436
:104B600004FA0EF425EA0405B0F1904F3FF471AF5A
:104B7000084CA04206D004F58064A0423FF467AF21
:104B8000072467E7012465E770BD00BF000001400E
:104B90000008005800040048002331FA03F271D0E5
:104BA000F0B52EE0022500E0002505FA0CF5A5423F
:104BB00049D004685D004FF0030C0CFA05FC44EA90
:104BC0000C0404604FEAD30E0EF1080E50F82E408C
:104BD00003F00706B6000F25B54024EA050440F8A7
:104BE0002E40846824EA0C048460446824EA0202AB
:104BF0004260C26822EA0C02C260013331FA03F259
:104C00003FD001229A4012EA0107F6D09E08B51C57
:104C10001D4C54F8254003F0030C4FEA8C0C4FF068
:104C2000070E0EFA0CFE0EEA0404B0F1904FBBD052
:104C3000164DA84205D005F58065A842B2D00725DB
:104C4000B3E70125B1E7124CD4F8805025EA0705F7
:104C5000C4F88050D4F8845025EA0705C4F884507D
:104C6000256825EA07052560656825EA070565606A
:104C7000054D023655F8264024EA0E0445F8264034
:104C800097E7F0BD704700BF0000014000040048F6
:104C9000000800580369194201D001207047002024
:104CA00070470AB18161704781627047436901EAC8
:104CB000030221EA030141EA0241816170470000D9
:104CC00008B5054BDB68034200D108BD024BD86034
:104CD000FEF7DAFBF9E700BF0008005803689A699D
:104CE00012F0020F01D000229A6203689A6912F052
:104CF000010F03D19A6942F001029A61704710B422
:104D0000019CC1F3090141EA02411943214321F009
:104D1000004102685368640D04F4806444F07F74B9
:104D200044F4583444F47F7444F0030423EA040345
:104D30000B43536010BC70472DE9F04104460368F3
:104D40009E6916F010067CD00D4690461022DA615E
:104D5000002637462368986910F0200F30D17FBBBA
:104D6000B5F1FF3FF6D0FCF7DFFFA0EB0800A8424B
:104D700001D8002DEED121684B6803F4804394F8EC
:104D80004220D2B2886910F4004F02D00BB9202A19
:104D90000ED123689B6913F0200FDBD1FCF7C4FF11
:104DA000A0EB08001928F4D946F020060127D1E726
:104DB0004B6843F480434B60FCF7B6FF8046E8E75E
:104DC0000FB92022DA6146F00406012522689369B2
:104DD00013F4807F05D046F001064FF48071D16155
:104DE000012513F4806F06D046F0080622684FF4C0
:104DF0008061D161012513F4007F24D046F00206C2
:104E000023684FF40072DA6101252046FFF766FF40
:104E10002268536823F0FF7323F48B3323F4FF736A
:104E200023F001035360636C33436364202384F8ED
:104E30004130002384F8423084F840302846BDE8F1
:104E4000F0810025C2E7002DF8D0DEE770B50446FA
:104E50000D46164623689B6913F0020F1DD132469A
:104E600029462046FFF768FFC8B9B5F1FF3FF1D0EA
:104E7000FCF75AFF801BA84201D8002DEAD1636CD1
:104E800043F020036364202384F84130002384F836
:104E9000423084F84030012000E0002070BD012045
:104EA000FCE72DE9F0410646884617461D46346862
:104EB000A46938EA04040CBF01240024BC4218D1C0
:104EC000B5F1FF3FF3D0FCF72FFF069BC01AA842B5
:104ED00001D8002DEBD1736C43F0200373642023C1
:104EE00086F84130002386F8423086F840300120B1
:104EF00000E00020BDE8F0812DE9F04182B00446D9
:104F000090461D46089E099F194B00934FF08073F1
:104F1000EAB2FFF7F4FE3A4631462046FFF796FF25
:104F2000F8B9012D0ED123685FFA88F29A620097D2
:104F30003346002280212046FFF7B3FFA8B902B014
:104F4000BDE8F08123684FEA18229A623A4631465A
:104F50002046FFF77BFF30B923685FFA88F29A6238
:104F6000E5E70120EBE70120E9E70120E7E700BFE3
:104F7000002000802DE9F04182B0044690461D4695
:104F8000089E099F184B00930023EAB2FFF7B7FE73
:104F90003A4631462046FFF759FFF8B9012D0ED1A8
:104FA00023685FFA88F29A62009733460022402114
:104FB0002046FFF776FFA8B902B0BDE8F08123686C
:104FC0004FEA18229A623A4631462046FFF73EFFE2
:104FD00030B923685FFA88F29A62E5E70120EBE7CF
:104FE0000120E9E70120E7E70020008070B50546D1
:104FF0000C4616462B689B6913F0200F1AD13246D7
:1050000021462846FFF798FEB0B9FCF78DFE801BBD
:10501000A04201D8002CEDD16B6C43F020036B64EF
:10502000202385F84130002385F8423085F8403050
:10503000012070BD0020FCE70120FAE7002859D0CC
:1050400010B5044690F84130002B43D0242384F857
:1050500041302268136823F00103136063682268FB
:1050600023F0706313612268936823F40043936014
:10507000E368012B33D0A368226843F404439360B0
:10508000E368022B31D02268536843F0007343F485
:10509000004353602268D36823F40043D36023693C
:1050A00062691343A169226843EA0123D360E3697B
:1050B000216A22680B4313602268136843F00103DE
:1050C000136000206064202384F84130206384F85A
:1050D000420010BD80F84030FCF794FCB6E7A368AE
:1050E000226843F400439360CAE723684FF40062E8
:1050F0005A60C8E7012070472DE9F04F83B00E4693
:10510000BDF834A00E9D90F84110C9B2202940F09E
:10511000BB800446904699460C9BCBB1BAF1000F78
:1051200016D090F84030012B00F0B2804FF0010B08
:1051300080F840B0FCF7F8FD0746009019235A4666
:105140004FF400412046FFF7ACFE30B101209CE057
:105150004FF400736364012097E0212384F8413009
:10516000402384F84230002363640C9A6262A4F8FE
:105170002AA06363019700954B464246314620467C
:10518000FFF7BAFE70B9638D9BB2FF2B0FD9FF22D8
:105190002285002300934FF0807331462046FFF7AD
:1051A000AEFD21E0002384F8403058466DE0628D6A
:1051B00092B22285002300934FF00073D2B23146A1
:1051C0002046FFF79CFD0FE0628D92B222850023FE
:1051D00000934FF00073D2B231462046FFF78FFDA7
:1051E000638D9BB2002B33D03A4629462046FFF709
:1051F0002DFE00284ED1626A236812789A62636A93
:1052000001336362638D9BB2013B9BB26385238D47
:10521000013B9BB22385628D92B2002AE0D0002B25
:10522000DED100972B46002280212046FFF739FE71
:1052300090BB638D9BB2FF2BC6D9FF222285002332
:1052400000934FF0807331462046FFF758FDC7E7C3
:105250003A4629462046FFF7C9FEF8B923682022BE
:10526000DA6121684B6823F0FF7323F48B3323F456
:10527000FF7323F001034B6084F84120002384F87E
:10528000423084F8403000E0022003B0BDE8F08FE7
:105290000220FAE70120F8E70120F6E70120F4E711
:1052A0002DE9F04F83B00E46BDF834A00E9D90F866
:1052B0004110C9B2202940F0BC800446904699466E
:1052C0000C9BCBB1BAF1000F16D090F84030012BF7
:1052D00000F0B3804FF0010B80F840B0FCF724FDE4
:1052E0000746009019235A464FF400412046FFF725
:1052F000D8FD30B101209DE04FF4007363640120BC
:1053000098E0222384F84130402384F8423000237F
:1053100063640C9A6262A4F82AA063630197009503
:105320004B46424631462046FFF724FE70B9638D56
:105330009BB2FF2B0FD9FF222285444B00934FF0E5
:10534000807331462046FFF7DAFC21E0002384F821
:10535000403058466EE0628D92B222853B4B0093FE
:105360004FF00073D2B231462046FFF7C8FC0FE081
:10537000628D92B22285002300934FF00073D2B267
:1053800031462046FFF7BBFC638D9BB2002B34D027
:1053900000972B46002204212046FFF782FD0028BB
:1053A0004DD123685A6A636A1A70636A0133636273
:1053B000228D013A92B22285638D9BB2013B9BB252
:1053C0006385638D9BB2002BDED0002ADCD1009771
:1053D0002B4680212046FFF764FD90BB638D9BB276
:1053E000FF2BC5D9FF222285002300934FF0807345
:1053F00031462046FFF783FCC6E73A462946204659
:10540000FFF7F4FDF8B923682022DA6121684B68C0
:1054100023F0FF7323F48B3323F4FF7323F0010392
:105420004B6084F84120002384F8423084F84030F7
:1054300000E0022003B0BDE8F08F0220FAE701206F
:10544000F8E70120F6E70120F4E700BF0024008020
:10545000034690F84120D2B2202A23D190F8402070
:10546000012A21D0012280F84020242280F8412006
:105470000068026822F0010202601868026822F4E3
:1054800080520260186802681143016019680A6856
:1054900042F001020A60202283F84120002083F8B4
:1054A000400070470220704702207047034690F882
:1054B0004120D2B2202A21D190F84020012A1FD0C9
:1054C000012280F84020242280F8412000680268F0
:1054D00022F0010202601868026822F4706242EA57
:1054E0000122026019680A6842F001020A60202263
:1054F00083F84120002083F8400070470220704765
:1055000002207047024A136843F4807313607047A7
:105510000004005810B50C46A0B90F4B5B6913F49A
:10552000007F0AD10D4A136923F004031361012C93
:1055300010D040BF20BF20BF10BD00F021F80028D0
:10554000F0D0F9E7044B5B6913F4007FEAD100F077
:105550000FF8E7E730BFEFE70004005800ED00E088
:10556000024B186800F4C060704700BF0004005888
:10557000024A136843F480431360704700040058E4
:105580000F4A136823F4804313600E4B1B683222CA
:1055900002FB03F30C4AA2FB03239B0C00E0013B3C
:1055A000074A526912F4007F01D0002BF7D1044B57
:1055B0005B6913F4007F01D100207047032070471E
:1055C000000400585000002083DE1B430C4A13687F
:1055D00023F0070343F0020313600A4A136943F000
:1055E00004031361012808D040BF20BF20BF054A33
:1055F000136923F004031361704730BFF7E700BF5E
:105600000004005800ED00E030B589B004468C4637
:105610002A4B93E803000690ADF81C1003F1080232
:1056200092E803000490ADF8141001AD103393E834
:10563000070085E80700BCF5007F07D0002314E0D1
:1056400008AA02EB830353F81C5C1EE00023022B24
:1056500008D808AA02EB430232F8082CA242EFD283
:105660000133F4E7002510E00133022B0CD808AA1F
:1056700002EB430232F8102CA242F5D308AA02EB47
:10568000830353F81C5C00E000250D4A136823F0E7
:1056900007032B431360FCF747FB0446084B1B68CA
:1056A00003F00703AB4206D0FCF73EFB001B0228C9
:1056B000F4D9032000E0002009B030BD786E010865
:1056C0000040005810B5C0F303100C4B53F82040B5
:1056D0004FF0B043D3F8083103F00F03084A52F8F3
:1056E0002330B4FBF3F4FFF73BFF0146054BA3FB6C
:1056F0000434A00CFFF788FF10BD00BFCC73010875
:105700006C73010883DE1B434FF0B0439968DB687C
:1057100003F0030311F00C010AD00C2906D0042970
:1057200047D008293BD00022104626E0012BF6D1B5
:105730004FF0B0431B6813F008030DD04FF0B04397
:105740001B6813F0080324D14FF0B042D2F8942024
:105750002E4A52F823200EE04FF0B042126812F0A9
:10576000080F12D14FF0B043D3F89430C3F30323A2
:10577000264A52F82320D1B100204FF0B0439B6855
:1057800003F00C030C2B1AD070474FF0B042126894
:10579000EEE74FF0B0431B68C3F30313D8E74FF0B5
:1057A000B0431A6812F4801206D11948E5E7104692
:1057B000E3E700221748E0E700221648DDE74FF054
:1057C000B043DB6803F00303022B09D0032B08D19D
:1057D0004FF0B0431B6813F4801F15D10C4A00E052
:1057E0000C4A4FF0B041CB68C3F3062303FB02F22F
:1057F000CB68C3F302130133B2FBF3F2C868400F66
:105800000130B2FBF0F0BFE7024AEAE7CC730108CF
:105810000048E8010024F40008B5FFF775FF4FF0D9
:10582000B0439B68C3F30313024A52F82330B0FB22
:10583000F3F008BD6C730108002800F01983F8B577
:1058400004464FF0B0439D6805F00C05DE6806F095
:105850000306036813F0200F00F08F80EDB10C2DCC
:1058600019D0236A002B00F0BC804FF0B0421368BF
:1058700043F001031360FCF757FA07464FF0B043BB
:105880001B6813F0020F65D1FCF74EFAC01B02280B
:10589000F4D90320F9E2012EE3D14FF0B0431B68A5
:1058A00013F0020F03D0236A002B00F0E382A06AFA
:1058B0004FF0B0431B6813F0080F29D04FF0B043EE
:1058C0001B6803F0F00398422AD9FFF7FBFE00287B
:1058D00040F0D2824FF0B0431A6842F008021A60DA
:1058E0001A6822F0F002A16A0A431A60616A5A68D3
:1058F00022F47F4242EA01225A60FFF78DFFB04B4B
:105900001860B04B1868FCF70DFA002835D0BCE2DF
:105910004FF0B043D3F894301B0903F0F003D2E703
:105920004FF0B0431A6842F008021A601A6822F079
:10593000F002A16A0A431A60616A5A6822F47F423F
:1059400042EA01225A60A06AFFF7BCFE0028D4D0C8
:1059500001209AE24FF0B0431A6842F008021A6040
:105960001A6822F0F002A16A0A431A60616A5A6852
:1059700022F47F4242EA01225A60236813F0010FA9
:1059800051D0082D45D00C2D41D04FF0B0421368B6
:1059900023F48013A1680B4313606368B3F5803F61
:1059A00063D0B3F5041F65D04FF0B0431A6822F4FA
:1059B00080321A601A6822F400121A606368002BA1
:1059C00063D0FCF7B1F907464FF0B0431B6813F4FE
:1059D000003F28D1FCF7A8F9C01B6428F4D90320A4
:1059E00053E24FF0B042136823F001031360FCF759
:1059F0009BF907464FF0B0431B6813F0020FBCD071
:105A0000FCF792F9C01B0228F4D903203DE2032ED3
:105A1000BBD14FF0B0431B6813F4003F03D0636861
:105A2000002B00F02B82236813F0020F52D0042DBC
:105A30003DD00C2D39D02369002B00F091804FF020
:105A4000B042136843F480731360FCF76DF90646A7
:105A50004FF0B0431B6813F4806F77D1FCF764F903
:105A6000801B0228F4D903200FE2136843F480332B
:105A70001360A3E74FF0B0431A6842F400121A60B3
:105A80001A6842F480321A6098E7FCF74DF907462D
:105A90004FF0B0431B6813F4003FC4D0FCF744F947
:105AA000C01B6428F4D90320EFE1022EC3D14FF0CC
:105AB000B0431B6813F4806F03D02369002B00F000
:105AC000DF8161694FF0B042536823F0FE4343EA3F
:105AD00001635360236813F0080F00F08E80A36900
